{"contracts/ts.sol":{"ts":{"abi":[{"inputs":[],"name":"end","outputs":[{"internalType":"uint256","name":"","type":"uint256"}],"stateMutability":"view","type":"function"},{"inputs":[],"name":"start","outputs":[{"internalType":"uint256","name":"","type":"uint256"}],"stateMutability":"view","type":"function"}],"evm":{"bytecode":{"linkReferences":{},"object":"608060405234801561001057600080fd5b5060cb8061001f6000396000f3fe6080604052348015600f57600080fd5b506004361060325760003560e01c8063be9a6555146037578063efbe1c1c14604f575b600080fd5b603d6055565b60405190815260200160405180910390f35b603d6066565b60006061426101f4606f565b905090565b60006061426104b05b80820180821115608f57634e487b7160e01b600052601160045260246000fd5b9291505056fea2646970667358221220c864c14c4a09c012ef7b2d9cabfefae700d8a75f00a92d58259833bf9d9b3e9a64736f6c63430008110033","opcodes":"PUSH1 0x80 PUSH1 0x40 MSTORE CALLVALUE DUP1 ISZERO PUSH2 0x10 JUMPI PUSH1 0x0 DUP1 REVERT JUMPDEST POP PUSH1 0xCB DUP1 PUSH2 0x1F PUSH1 0x0 CODECOPY PUSH1 0x0 RETURN INVALID PUSH1 0x80 PUSH1 0x40 MSTORE CALLVALUE DUP1 ISZERO PUSH1 0xF JUMPI PUSH1 0x0 DUP1 REVERT JUMPDEST POP PUSH1 0x4 CALLDATASIZE LT PUSH1 0x32 JUMPI PUSH1 0x0 CALLDATALOAD PUSH1 0xE0 SHR DUP1 PUSH4 0xBE9A6555 EQ PUSH1 0x37 JUMPI DUP1 PUSH4 0xEFBE1C1C EQ PUSH1 0x4F JUMPI JUMPDEST PUSH1 0x0 DUP1 REVERT JUMPDEST PUSH1 0x3D PUSH1 0x55 JUMP JUMPDEST PUSH1 0x40 MLOAD SWAP1 DUP2 MSTORE PUSH1 0x20 ADD PUSH1 0x40 MLOAD DUP1 SWAP2 SUB SWAP1 RETURN JUMPDEST PUSH1 0x3D PUSH1 0x66 JUMP JUMPDEST PUSH1 0x0 PUSH1 0x61 TIMESTAMP PUSH2 0x1F4 PUSH1 0x6F JUMP JUMPDEST SWAP1 POP SWAP1 JUMP JUMPDEST PUSH1 0x0 PUSH1 0x61 TIMESTAMP PUSH2 0x4B0 JUMPDEST DUP1 DUP3 ADD DUP1 DUP3 GT ISZERO PUSH1 0x8F JUMPI PUSH4 0x4E487B71 PUSH1 0xE0 SHL PUSH1 0x0 MSTORE PUSH1 0x11 PUSH1 0x4 MSTORE PUSH1 0x24 PUSH1 0x0 REVERT JUMPDEST SWAP3 SWAP2 POP POP JUMP INVALID LOG2 PUSH5 0x6970667358 0x22 SLT KECCAK256 0xC8 PUSH5 0xC14C4A09C0 SLT 0xEF PUSH28 0x2D9CABFEFAE700D8A75F00A92D58259833BF9D9B3E9A64736F6C6343 STOP ADDMOD GT STOP CALLER "},"methodIdentifiers":{"end()":"efbe1c1c","start()":"be9a6555"}},"storageLayout":{"storage":[],"types":null}}}}