{"contracts/vesting/LinearVestingVault.sol":{"LinearVestingVault":{"abi":[{"inputs":[],"name":"InvalidClaim","type":"error"},{"inputs":[],"name":"InvalidParams","type":"error"},{"inputs":[],"name":"NotVested","type":"error"},{"inputs":[],"name":"Unauthorized","type":"error"},{"anonymous":false,"inputs":[{"indexed":false,"internalType":"address","name":"beneficiary","type":"address"},{"indexed":false,"internalType":"address","name":"token","type":"address"},{"indexed":false,"internalType":"uint256","name":"amount","type":"uint256"}],"name":"Claimed","type":"event"},{"anonymous":false,"inputs":[{"indexed":false,"internalType":"uint8","name":"version","type":"uint8"}],"name":"Initialized","type":"event"},{"inputs":[],"name":"amountClaimed","outputs":[{"internalType":"uint256","name":"","type":"uint256"}],"stateMutability":"view","type":"function"},{"inputs":[],"name":"beneficiary","outputs":[{"internalType":"address","name":"","type":"address"}],"stateMutability":"pure","type":"function"},{"inputs":[],"name":"claim","outputs":[],"stateMutability":"nonpayable","type":"function"},{"inputs":[],"name":"initialize","outputs":[],"stateMutability":"nonpayable","type":"function"},{"inputs":[],"name":"token","outputs":[{"internalType":"contract IERC20Upgradeable","name":"","type":"address"}],"stateMutability":"pure","type":"function"},{"inputs":[],"name":"totalAmount","outputs":[{"internalType":"uint256","name":"","type":"uint256"}],"stateMutability":"pure","type":"function"},{"inputs":[],"name":"unvested","outputs":[{"internalType":"uint256","name":"","type":"uint256"}],"stateMutability":"view","type":"function"},{"inputs":[],"name":"vestEndTimestamp","outputs":[{"internalType":"uint256","name":"","type":"uint256"}],"stateMutability":"pure","type":"function"},{"inputs":[],"name":"vestStartTimestamp","outputs":[{"internalType":"uint256","name":"","type":"uint256"}],"stateMutability":"pure","type":"function"},{"inputs":[],"name":"vested","outputs":[{"internalType":"uint256","name":"","type":"uint256"}],"stateMutability":"view","type":"function"},{"inputs":[{"internalType":"uint256","name":"timestamp","type":"uint256"}],"name":"vestedOn","outputs":[{"internalType":"uint256","name":"amount","type":"uint256"}],"stateMutability":"view","type":"function"}],"evm":{"bytecode":{"linkReferences":{},"object":"608060405234801561001057600080fd5b50610b6b806100206000396000f3fe608060405234801561001057600080fd5b50600436106100a95760003560e01c8063aba0223511610071578063aba0223514610103578063ad6b5d0414610116578063da919faa1461011f578063ddb0d2ed14610127578063fc0c546a1461012f578063fea5657c1461013757600080fd5b80631a39d8ef146100ae57806338af3eed146100c95780634e71d92d146100e9578063556d1e56146100f35780638129fc1c146100fb575b600080fd5b6100b661013f565b6040519081526020015b60405180910390f35b6100d1610150565b6040516001600160a01b0390911681526020016100c0565b6100f161015c565b005b6100b661025d565b6100f1610269565b6100b66101113660046109a8565b6103b6565b6100b660335481565b6100b6610431565b6100b66104b7565b6100d16104c3565b6100b66104cf565b600061014b60686104da565b905090565b600061014b60146104fc565b610164610521565b61016c610150565b6001600160a01b0316336001600160a01b03161461019c576040516282b42960e81b815260040160405180910390fd5b60006101a66104cf565b9050806000036101c957604051639225b94160e01b815260040160405180910390fd5b6101d28161057a565b6101f66101dd610150565b826101e66104c3565b6001600160a01b03169190610594565b7ff7a40077ff7a04c7e61f6f26fb13774259ddf1b6bce9ecf26a8276cdd399268361021f610150565b6102276104c3565b604080516001600160a01b039384168152929091166020830152810183905260600160405180910390a15061025b60018055565b565b600061014b60486104da565b600054610100900460ff16158080156102895750600054600160ff909116105b806102a35750303b1580156102a3575060005460ff166001145b61030b5760405162461bcd60e51b815260206004820152602e60248201527f496e697469616c697a61626c653a20636f6e747261637420697320616c72656160448201526d191e481a5b9a5d1a585b1a5e995960921b60648201526084015b60405180910390fd5b6000805460ff19166001179055801561032e576000805461ff0019166101001790555b61033661025d565b61033e6104b7565b111561035d57604051635435b28960e11b815260040160405180910390fd5b61036d61036861013f565b610602565b80156103b3576000805461ff0019169055604051600181527f7f26b83ff96e1f2b6a682f133852f6798a09c465da95921460cefb38474024989060200160405180910390a15b50565b6000806103c16104b7565b6103c961025d565b6103d391906109d7565b6103db6104b7565b6103e590856109d7565b6103ed61013f565b6103f791906109f0565b6104019190610a07565b905061040b61013f565b81111561041d5761041a61013f565b90505b60335461042a90826109d7565b9392505050565b600061043b6104cf565b6104436104c3565b6040516370a0823160e01b81523060048201526001600160a01b0391909116906370a0823190602401602060405180830381865afa158015610489573d6000803e3d6000fd5b505050506040513d601f19601f820116820180604052508101906104ad9190610a29565b61014b91906109d7565b600061014b60286104da565b600061014b60006104fc565b600061014b426103b6565b6000806104f1600119368181013560f01c90030190565b929092013592915050565b600080610513600119368181013560f01c90030190565b929092013560601c92915050565b6002600154036105735760405162461bcd60e51b815260206004820152601f60248201527f5265656e7472616e637947756172643a207265656e7472616e742063616c6c006044820152606401610302565b6002600155565b806033600082825461058c9190610a42565b909155505050565b6040516001600160a01b0383166024820152604481018290526105f790849063a9059cbb60e01b906064015b60408051601f198184030181529190526020810180516001600160e01b03166001600160e01b0319909316929092179091526106b2565b505050565b60018055565b600054610100900460ff166106295760405162461bcd60e51b815260040161030290610a55565b610631610784565b600061063b6104c3565b6001600160a01b03160361066257604051635435b28960e11b815260040160405180910390fd5b600061066c610150565b6001600160a01b03160361069357604051635435b28960e11b815260040160405180910390fd5b6103b33330836106a16104c3565b6001600160a01b03169291906107b3565b6000610707826040518060400160405280602081526020017f5361666545524332303a206c6f772d6c6576656c2063616c6c206661696c6564815250856001600160a01b03166107f19092919063ffffffff16565b8051909150156105f757808060200190518101906107259190610aa0565b6105f75760405162461bcd60e51b815260206004820152602a60248201527f5361666545524332303a204552433230206f7065726174696f6e20646964206e6044820152691bdd081cdd58d8d9595960b21b6064820152608401610302565b600054610100900460ff166107ab5760405162461bcd60e51b815260040161030290610a55565b61025b610808565b6040516001600160a01b03808516602483015283166044820152606481018290526107eb9085906323b872dd60e01b906084016105c0565b50505050565b6060610800848460008561082f565b949350505050565b600054610100900460ff166105fc5760405162461bcd60e51b815260040161030290610a55565b6060824710156108905760405162461bcd60e51b815260206004820152602660248201527f416464726573733a20696e73756666696369656e742062616c616e636520666f6044820152651c8818d85b1b60d21b6064820152608401610302565b600080866001600160a01b031685876040516108ac9190610ae6565b60006040518083038185875af1925050503d80600081146108e9576040519150601f19603f3d011682016040523d82523d6000602084013e6108ee565b606091505b50915091506108ff8783838761090a565b979650505050505050565b60608315610979578251600003610972576001600160a01b0385163b6109725760405162461bcd60e51b815260206004820152601d60248201527f416464726573733a2063616c6c20746f206e6f6e2d636f6e74726163740000006044820152606401610302565b5081610800565b610800838381511561098e5781518083602001fd5b8060405162461bcd60e51b81526004016103029190610b02565b6000602082840312156109ba57600080fd5b5035919050565b634e487b7160e01b600052601160045260246000fd5b818103818111156109ea576109ea6109c1565b92915050565b80820281158282048414176109ea576109ea6109c1565b600082610a2457634e487b7160e01b600052601260045260246000fd5b500490565b600060208284031215610a3b57600080fd5b5051919050565b808201808211156109ea576109ea6109c1565b6020808252602b908201527f496e697469616c697a61626c653a20636f6e7472616374206973206e6f74206960408201526a6e697469616c697a696e6760a81b606082015260800190565b600060208284031215610ab257600080fd5b8151801515811461042a57600080fd5b60005b83811015610add578181015183820152602001610ac5565b50506000910152565b60008251610af8818460208701610ac2565b9190910192915050565b6020815260008251806020840152610b21816040850160208701610ac2565b601f01601f1916919091016040019291505056fea2646970667358221220011a4da24428ca61a8c77cafd782e7272a6f09324c39e80216a6bc1bd602364264736f6c63430008110033","opcodes":"PUSH1 0x80 PUSH1 0x40 MSTORE CALLVALUE DUP1 ISZERO PUSH2 0x10 JUMPI PUSH1 0x0 DUP1 REVERT JUMPDEST POP PUSH2 0xB6B DUP1 PUSH2 0x20 PUSH1 0x0 CODECOPY PUSH1 0x0 RETURN INVALID PUSH1 0x80 PUSH1 0x40 MSTORE CALLVALUE DUP1 ISZERO PUSH2 0x10 JUMPI PUSH1 0x0 DUP1 REVERT JUMPDEST POP PUSH1 0x4 CALLDATASIZE LT PUSH2 0xA9 JUMPI PUSH1 0x0 CALLDATALOAD PUSH1 0xE0 SHR DUP1 PUSH4 0xABA02235 GT PUSH2 0x71 JUMPI DUP1 PUSH4 0xABA02235 EQ PUSH2 0x103 JUMPI DUP1 PUSH4 0xAD6B5D04 EQ PUSH2 0x116 JUMPI DUP1 PUSH4 0xDA919FAA EQ PUSH2 0x11F JUMPI DUP1 PUSH4 0xDDB0D2ED EQ PUSH2 0x127 JUMPI DUP1 PUSH4 0xFC0C546A EQ PUSH2 0x12F JUMPI DUP1 PUSH4 0xFEA5657C EQ PUSH2 0x137 JUMPI PUSH1 0x0 DUP1 REVERT JUMPDEST DUP1 PUSH4 0x1A39D8EF EQ PUSH2 0xAE JUMPI DUP1 PUSH4 0x38AF3EED EQ PUSH2 0xC9 JUMPI DUP1 PUSH4 0x4E71D92D EQ PUSH2 0xE9 JUMPI DUP1 PUSH4 0x556D1E56 EQ PUSH2 0xF3 JUMPI DUP1 PUSH4 0x8129FC1C EQ PUSH2 0xFB JUMPI JUMPDEST PUSH1 0x0 DUP1 REVERT JUMPDEST PUSH2 0xB6 PUSH2 0x13F JUMP JUMPDEST PUSH1 0x40 MLOAD SWAP1 DUP2 MSTORE PUSH1 0x20 ADD JUMPDEST PUSH1 0x40 MLOAD DUP1 SWAP2 SUB SWAP1 RETURN JUMPDEST PUSH2 0xD1 PUSH2 0x150 JUMP JUMPDEST PUSH1 0x40 MLOAD PUSH1 0x1 PUSH1 0x1 PUSH1 0xA0 SHL SUB SWAP1 SWAP2 AND DUP2 MSTORE PUSH1 0x20 ADD PUSH2 0xC0 JUMP JUMPDEST PUSH2 0xF1 PUSH2 0x15C JUMP JUMPDEST STOP JUMPDEST PUSH2 0xB6 PUSH2 0x25D JUMP JUMPDEST PUSH2 0xF1 PUSH2 0x269 JUMP JUMPDEST PUSH2 0xB6 PUSH2 0x111 CALLDATASIZE PUSH1 0x4 PUSH2 0x9A8 JUMP JUMPDEST PUSH2 0x3B6 JUMP JUMPDEST PUSH2 0xB6 PUSH1 0x33 SLOAD DUP2 JUMP JUMPDEST PUSH2 0xB6 PUSH2 0x431 JUMP JUMPDEST PUSH2 0xB6 PUSH2 0x4B7 JUMP JUMPDEST PUSH2 0xD1 PUSH2 0x4C3 JUMP JUMPDEST PUSH2 0xB6 PUSH2 0x4CF JUMP JUMPDEST PUSH1 0x0 PUSH2 0x14B PUSH1 0x68 PUSH2 0x4DA JUMP JUMPDEST SWAP1 POP SWAP1 JUMP JUMPDEST PUSH1 0x0 PUSH2 0x14B PUSH1 0x14 PUSH2 0x4FC JUMP JUMPDEST PUSH2 0x164 PUSH2 0x521 JUMP JUMPDEST PUSH2 0x16C PUSH2 0x150 JUMP JUMPDEST PUSH1 0x1 PUSH1 0x1 PUSH1 0xA0 SHL SUB AND CALLER PUSH1 0x1 PUSH1 0x1 PUSH1 0xA0 SHL SUB AND EQ PUSH2 0x19C JUMPI PUSH1 0x40 MLOAD PUSH3 0x82B429 PUSH1 0xE8 SHL DUP2 MSTORE PUSH1 0x4 ADD PUSH1 0x40 MLOAD DUP1 SWAP2 SUB SWAP1 REVERT JUMPDEST PUSH1 0x0 PUSH2 0x1A6 PUSH2 0x4CF JUMP JUMPDEST SWAP1 POP DUP1 PUSH1 0x0 SUB PUSH2 0x1C9 JUMPI PUSH1 0x40 MLOAD PUSH4 0x9225B941 PUSH1 0xE0 SHL DUP2 MSTORE PUSH1 0x4 ADD PUSH1 0x40 MLOAD DUP1 SWAP2 SUB SWAP1 REVERT JUMPDEST PUSH2 0x1D2 DUP2 PUSH2 0x57A JUMP JUMPDEST PUSH2 0x1F6 PUSH2 0x1DD PUSH2 0x150 JUMP JUMPDEST DUP3 PUSH2 0x1E6 PUSH2 0x4C3 JUMP JUMPDEST PUSH1 0x1 PUSH1 0x1 PUSH1 0xA0 SHL SUB AND SWAP2 SWAP1 PUSH2 0x594 JUMP JUMPDEST PUSH32 0xF7A40077FF7A04C7E61F6F26FB13774259DDF1B6BCE9ECF26A8276CDD3992683 PUSH2 0x21F PUSH2 0x150 JUMP JUMPDEST PUSH2 0x227 PUSH2 0x4C3 JUMP JUMPDEST PUSH1 0x40 DUP1 MLOAD PUSH1 0x1 PUSH1 0x1 PUSH1 0xA0 SHL SUB SWAP4 DUP5 AND DUP2 MSTORE SWAP3 SWAP1 SWAP2 AND PUSH1 0x20 DUP4 ADD MSTORE DUP2 ADD DUP4 SWAP1 MSTORE PUSH1 0x60 ADD PUSH1 0x40 MLOAD DUP1 SWAP2 SUB SWAP1 LOG1 POP PUSH2 0x25B PUSH1 0x1 DUP1 SSTORE JUMP JUMPDEST JUMP JUMPDEST PUSH1 0x0 PUSH2 0x14B PUSH1 0x48 PUSH2 0x4DA JUMP JUMPDEST PUSH1 0x0 SLOAD PUSH2 0x100 SWAP1 DIV PUSH1 0xFF AND ISZERO DUP1 DUP1 ISZERO PUSH2 0x289 JUMPI POP PUSH1 0x0 SLOAD PUSH1 0x1 PUSH1 0xFF SWAP1 SWAP2 AND LT JUMPDEST DUP1 PUSH2 0x2A3 JUMPI POP ADDRESS EXTCODESIZE ISZERO DUP1 ISZERO PUSH2 0x2A3 JUMPI POP PUSH1 0x0 SLOAD PUSH1 0xFF AND PUSH1 0x1 EQ JUMPDEST PUSH2 0x30B JUMPI PUSH1 0x40 MLOAD PUSH3 0x461BCD PUSH1 0xE5 SHL DUP2 MSTORE PUSH1 0x20 PUSH1 0x4 DUP3 ADD MSTORE PUSH1 0x2E PUSH1 0x24 DUP3 ADD MSTORE PUSH32 0x496E697469616C697A61626C653A20636F6E747261637420697320616C726561 PUSH1 0x44 DUP3 ADD MSTORE PUSH14 0x191E481A5B9A5D1A585B1A5E9959 PUSH1 0x92 SHL PUSH1 0x64 DUP3 ADD MSTORE PUSH1 0x84 ADD JUMPDEST PUSH1 0x40 MLOAD DUP1 SWAP2 SUB SWAP1 REVERT JUMPDEST PUSH1 0x0 DUP1 SLOAD PUSH1 0xFF NOT AND PUSH1 0x1 OR SWAP1 SSTORE DUP1 ISZERO PUSH2 0x32E JUMPI PUSH1 0x0 DUP1 SLOAD PUSH2 0xFF00 NOT AND PUSH2 0x100 OR SWAP1 SSTORE JUMPDEST PUSH2 0x336 PUSH2 0x25D JUMP JUMPDEST PUSH2 0x33E PUSH2 0x4B7 JUMP JUMPDEST GT ISZERO PUSH2 0x35D JUMPI PUSH1 0x40 MLOAD PUSH4 0x5435B289 PUSH1 0xE1 SHL DUP2 MSTORE PUSH1 0x4 ADD PUSH1 0x40 MLOAD DUP1 SWAP2 SUB SWAP1 REVERT JUMPDEST PUSH2 0x36D PUSH2 0x368 PUSH2 0x13F JUMP JUMPDEST PUSH2 0x602 JUMP JUMPDEST DUP1 ISZERO PUSH2 0x3B3 JUMPI PUSH1 0x0 DUP1 SLOAD PUSH2 0xFF00 NOT AND SWAP1 SSTORE PUSH1 0x40 MLOAD PUSH1 0x1 DUP2 MSTORE PUSH32 0x7F26B83FF96E1F2B6A682F133852F6798A09C465DA95921460CEFB3847402498 SWAP1 PUSH1 0x20 ADD PUSH1 0x40 MLOAD DUP1 SWAP2 SUB SWAP1 LOG1 JUMPDEST POP JUMP JUMPDEST PUSH1 0x0 DUP1 PUSH2 0x3C1 PUSH2 0x4B7 JUMP JUMPDEST PUSH2 0x3C9 PUSH2 0x25D JUMP JUMPDEST PUSH2 0x3D3 SWAP2 SWAP1 PUSH2 0x9D7 JUMP JUMPDEST PUSH2 0x3DB PUSH2 0x4B7 JUMP JUMPDEST PUSH2 0x3E5 SWAP1 DUP6 PUSH2 0x9D7 JUMP JUMPDEST PUSH2 0x3ED PUSH2 0x13F JUMP JUMPDEST PUSH2 0x3F7 SWAP2 SWAP1 PUSH2 0x9F0 JUMP JUMPDEST PUSH2 0x401 SWAP2 SWAP1 PUSH2 0xA07 JUMP JUMPDEST SWAP1 POP PUSH2 0x40B PUSH2 0x13F JUMP JUMPDEST DUP2 GT ISZERO PUSH2 0x41D JUMPI PUSH2 0x41A PUSH2 0x13F JUMP JUMPDEST SWAP1 POP JUMPDEST PUSH1 0x33 SLOAD PUSH2 0x42A SWAP1 DUP3 PUSH2 0x9D7 JUMP JUMPDEST SWAP4 SWAP3 POP POP POP JUMP JUMPDEST PUSH1 0x0 PUSH2 0x43B PUSH2 0x4CF JUMP JUMPDEST PUSH2 0x443 PUSH2 0x4C3 JUMP JUMPDEST PUSH1 0x40 MLOAD PUSH4 0x70A08231 PUSH1 0xE0 SHL DUP2 MSTORE ADDRESS PUSH1 0x4 DUP3 ADD MSTORE PUSH1 0x1 PUSH1 0x1 PUSH1 0xA0 SHL SUB SWAP2 SWAP1 SWAP2 AND SWAP1 PUSH4 0x70A08231 SWAP1 PUSH1 0x24 ADD PUSH1 0x20 PUSH1 0x40 MLOAD DUP1 DUP4 SUB DUP2 DUP7 GAS STATICCALL ISZERO DUP1 ISZERO PUSH2 0x489 JUMPI RETURNDATASIZE PUSH1 0x0 DUP1 RETURNDATACOPY RETURNDATASIZE PUSH1 0x0 REVERT JUMPDEST POP POP POP POP PUSH1 0x40 MLOAD RETURNDATASIZE PUSH1 0x1F NOT PUSH1 0x1F DUP3 ADD AND DUP3 ADD DUP1 PUSH1 0x40 MSTORE POP DUP2 ADD SWAP1 PUSH2 0x4AD SWAP2 SWAP1 PUSH2 0xA29 JUMP JUMPDEST PUSH2 0x14B SWAP2 SWAP1 PUSH2 0x9D7 JUMP JUMPDEST PUSH1 0x0 PUSH2 0x14B PUSH1 0x28 PUSH2 0x4DA JUMP JUMPDEST PUSH1 0x0 PUSH2 0x14B PUSH1 0x0 PUSH2 0x4FC JUMP JUMPDEST PUSH1 0x0 PUSH2 0x14B TIMESTAMP PUSH2 0x3B6 JUMP JUMPDEST PUSH1 0x0 DUP1 PUSH2 0x4F1 PUSH1 0x1 NOT CALLDATASIZE DUP2 DUP2 ADD CALLDATALOAD PUSH1 0xF0 SHR SWAP1 SUB ADD SWAP1 JUMP JUMPDEST SWAP3 SWAP1 SWAP3 ADD CALLDATALOAD SWAP3 SWAP2 POP POP JUMP JUMPDEST PUSH1 0x0 DUP1 PUSH2 0x513 PUSH1 0x1 NOT CALLDATASIZE DUP2 DUP2 ADD CALLDATALOAD PUSH1 0xF0 SHR SWAP1 SUB ADD SWAP1 JUMP JUMPDEST SWAP3 SWAP1 SWAP3 ADD CALLDATALOAD PUSH1 0x60 SHR SWAP3 SWAP2 POP POP JUMP JUMPDEST PUSH1 0x2 PUSH1 0x1 SLOAD SUB PUSH2 0x573 JUMPI PUSH1 0x40 MLOAD PUSH3 0x461BCD PUSH1 0xE5 SHL DUP2 MSTORE PUSH1 0x20 PUSH1 0x4 DUP3 ADD MSTORE PUSH1 0x1F PUSH1 0x24 DUP3 ADD MSTORE PUSH32 0x5265656E7472616E637947756172643A207265656E7472616E742063616C6C00 PUSH1 0x44 DUP3 ADD MSTORE PUSH1 0x64 ADD PUSH2 0x302 JUMP JUMPDEST PUSH1 0x2 PUSH1 0x1 SSTORE JUMP JUMPDEST DUP1 PUSH1 0x33 PUSH1 0x0 DUP3 DUP3 SLOAD PUSH2 0x58C SWAP2 SWAP1 PUSH2 0xA42 JUMP JUMPDEST SWAP1 SWAP2 SSTORE POP POP POP JUMP JUMPDEST PUSH1 0x40 MLOAD PUSH1 0x1 PUSH1 0x1 PUSH1 0xA0 SHL SUB DUP4 AND PUSH1 0x24 DUP3 ADD MSTORE PUSH1 0x44 DUP2 ADD DUP3 SWAP1 MSTORE PUSH2 0x5F7 SWAP1 DUP5 SWAP1 PUSH4 0xA9059CBB PUSH1 0xE0 SHL SWAP1 PUSH1 0x64 ADD JUMPDEST PUSH1 0x40 DUP1 MLOAD PUSH1 0x1F NOT DUP2 DUP5 SUB ADD DUP2 MSTORE SWAP2 SWAP1 MSTORE PUSH1 0x20 DUP2 ADD DUP1 MLOAD PUSH1 0x1 PUSH1 0x1 PUSH1 0xE0 SHL SUB AND PUSH1 0x1 PUSH1 0x1 PUSH1 0xE0 SHL SUB NOT SWAP1 SWAP4 AND SWAP3 SWAP1 SWAP3 OR SWAP1 SWAP2 MSTORE PUSH2 0x6B2 JUMP JUMPDEST POP POP POP JUMP JUMPDEST PUSH1 0x1 DUP1 SSTORE JUMP JUMPDEST PUSH1 0x0 SLOAD PUSH2 0x100 SWAP1 DIV PUSH1 0xFF AND PUSH2 0x629 JUMPI PUSH1 0x40 MLOAD PUSH3 0x461BCD PUSH1 0xE5 SHL DUP2 MSTORE PUSH1 0x4 ADD PUSH2 0x302 SWAP1 PUSH2 0xA55 JUMP JUMPDEST PUSH2 0x631 PUSH2 0x784 JUMP JUMPDEST PUSH1 0x0 PUSH2 0x63B PUSH2 0x4C3 JUMP JUMPDEST PUSH1 0x1 PUSH1 0x1 PUSH1 0xA0 SHL SUB AND SUB PUSH2 0x662 JUMPI PUSH1 0x40 MLOAD PUSH4 0x5435B289 PUSH1 0xE1 SHL DUP2 MSTORE PUSH1 0x4 ADD PUSH1 0x40 MLOAD DUP1 SWAP2 SUB SWAP1 REVERT JUMPDEST PUSH1 0x0 PUSH2 0x66C PUSH2 0x150 JUMP JUMPDEST PUSH1 0x1 PUSH1 0x1 PUSH1 0xA0 SHL SUB AND SUB PUSH2 0x693 JUMPI PUSH1 0x40 MLOAD PUSH4 0x5435B289 PUSH1 0xE1 SHL DUP2 MSTORE PUSH1 0x4 ADD PUSH1 0x40 MLOAD DUP1 SWAP2 SUB SWAP1 REVERT JUMPDEST PUSH2 0x3B3 CALLER ADDRESS DUP4 PUSH2 0x6A1 PUSH2 0x4C3 JUMP JUMPDEST PUSH1 0x1 PUSH1 0x1 PUSH1 0xA0 SHL SUB AND SWAP3 SWAP2 SWAP1 PUSH2 0x7B3 JUMP JUMPDEST PUSH1 0x0 PUSH2 0x707 DUP3 PUSH1 0x40 MLOAD DUP1 PUSH1 0x40 ADD PUSH1 0x40 MSTORE DUP1 PUSH1 0x20 DUP2 MSTORE PUSH1 0x20 ADD PUSH32 0x5361666545524332303A206C6F772D6C6576656C2063616C6C206661696C6564 DUP2 MSTORE POP DUP6 PUSH1 0x1 PUSH1 0x1 PUSH1 0xA0 SHL SUB AND PUSH2 0x7F1 SWAP1 SWAP3 SWAP2 SWAP1 PUSH4 0xFFFFFFFF AND JUMP JUMPDEST DUP1 MLOAD SWAP1 SWAP2 POP ISZERO PUSH2 0x5F7 JUMPI DUP1 DUP1 PUSH1 0x20 ADD SWAP1 MLOAD DUP2 ADD SWAP1 PUSH2 0x725 SWAP2 SWAP1 PUSH2 0xAA0 JUMP JUMPDEST PUSH2 0x5F7 JUMPI PUSH1 0x40 MLOAD PUSH3 0x461BCD PUSH1 0xE5 SHL DUP2 MSTORE PUSH1 0x20 PUSH1 0x4 DUP3 ADD MSTORE PUSH1 0x2A PUSH1 0x24 DUP3 ADD MSTORE PUSH32 0x5361666545524332303A204552433230206F7065726174696F6E20646964206E PUSH1 0x44 DUP3 ADD MSTORE PUSH10 0x1BDD081CDD58D8D95959 PUSH1 0xB2 SHL PUSH1 0x64 DUP3 ADD MSTORE PUSH1 0x84 ADD PUSH2 0x302 JUMP JUMPDEST PUSH1 0x0 SLOAD PUSH2 0x100 SWAP1 DIV PUSH1 0xFF AND PUSH2 0x7AB JUMPI PUSH1 0x40 MLOAD PUSH3 0x461BCD PUSH1 0xE5 SHL DUP2 MSTORE PUSH1 0x4 ADD PUSH2 0x302 SWAP1 PUSH2 0xA55 JUMP JUMPDEST PUSH2 0x25B PUSH2 0x808 JUMP JUMPDEST PUSH1 0x40 MLOAD PUSH1 0x1 PUSH1 0x1 PUSH1 0xA0 SHL SUB DUP1 DUP6 AND PUSH1 0x24 DUP4 ADD MSTORE DUP4 AND PUSH1 0x44 DUP3 ADD MSTORE PUSH1 0x64 DUP2 ADD DUP3 SWAP1 MSTORE PUSH2 0x7EB SWAP1 DUP6 SWAP1 PUSH4 0x23B872DD PUSH1 0xE0 SHL SWAP1 PUSH1 0x84 ADD PUSH2 0x5C0 JUMP JUMPDEST POP POP POP POP JUMP JUMPDEST PUSH1 0x60 PUSH2 0x800 DUP5 DUP5 PUSH1 0x0 DUP6 PUSH2 0x82F JUMP JUMPDEST SWAP5 SWAP4 POP POP POP POP JUMP JUMPDEST PUSH1 0x0 SLOAD PUSH2 0x100 SWAP1 DIV PUSH1 0xFF AND PUSH2 0x5FC JUMPI PUSH1 0x40 MLOAD PUSH3 0x461BCD PUSH1 0xE5 SHL DUP2 MSTORE PUSH1 0x4 ADD PUSH2 0x302 SWAP1 PUSH2 0xA55 JUMP JUMPDEST PUSH1 0x60 DUP3 SELFBALANCE LT ISZERO PUSH2 0x890 JUMPI PUSH1 0x40 MLOAD PUSH3 0x461BCD PUSH1 0xE5 SHL DUP2 MSTORE PUSH1 0x20 PUSH1 0x4 DUP3 ADD MSTORE PUSH1 0x26 PUSH1 0x24 DUP3 ADD MSTORE PUSH32 0x416464726573733A20696E73756666696369656E742062616C616E636520666F PUSH1 0x44 DUP3 ADD MSTORE PUSH6 0x1C8818D85B1B PUSH1 0xD2 SHL PUSH1 0x64 DUP3 ADD MSTORE PUSH1 0x84 ADD PUSH2 0x302 JUMP JUMPDEST PUSH1 0x0 DUP1 DUP7 PUSH1 0x1 PUSH1 0x1 PUSH1 0xA0 SHL SUB AND DUP6 DUP8 PUSH1 0x40 MLOAD PUSH2 0x8AC SWAP2 SWAP1 PUSH2 0xAE6 JUMP JUMPDEST PUSH1 0x0 PUSH1 0x40 MLOAD DUP1 DUP4 SUB DUP2 DUP6 DUP8 GAS CALL SWAP3 POP POP POP RETURNDATASIZE DUP1 PUSH1 0x0 DUP2 EQ PUSH2 0x8E9 JUMPI PUSH1 0x40 MLOAD SWAP2 POP PUSH1 0x1F NOT PUSH1 0x3F RETURNDATASIZE ADD AND DUP3 ADD PUSH1 0x40 MSTORE RETURNDATASIZE DUP3 MSTORE RETURNDATASIZE PUSH1 0x0 PUSH1 0x20 DUP5 ADD RETURNDATACOPY PUSH2 0x8EE JUMP JUMPDEST PUSH1 0x60 SWAP2 POP JUMPDEST POP SWAP2 POP SWAP2 POP PUSH2 0x8FF DUP8 DUP4 DUP4 DUP8 PUSH2 0x90A JUMP JUMPDEST SWAP8 SWAP7 POP POP POP POP POP POP POP JUMP JUMPDEST PUSH1 0x60 DUP4 ISZERO PUSH2 0x979 JUMPI DUP3 MLOAD PUSH1 0x0 SUB PUSH2 0x972 JUMPI PUSH1 0x1 PUSH1 0x1 PUSH1 0xA0 SHL SUB DUP6 AND EXTCODESIZE PUSH2 0x972 JUMPI PUSH1 0x40 MLOAD PUSH3 0x461BCD PUSH1 0xE5 SHL DUP2 MSTORE PUSH1 0x20 PUSH1 0x4 DUP3 ADD MSTORE PUSH1 0x1D PUSH1 0x24 DUP3 ADD MSTORE PUSH32 0x416464726573733A2063616C6C20746F206E6F6E2D636F6E7472616374000000 PUSH1 0x44 DUP3 ADD MSTORE PUSH1 0x64 ADD PUSH2 0x302 JUMP JUMPDEST POP DUP2 PUSH2 0x800 JUMP JUMPDEST PUSH2 0x800 DUP4 DUP4 DUP2 MLOAD ISZERO PUSH2 0x98E JUMPI DUP2 MLOAD DUP1 DUP4 PUSH1 0x20 ADD REVERT JUMPDEST DUP1 PUSH1 0x40 MLOAD PUSH3 0x461BCD PUSH1 0xE5 SHL DUP2 MSTORE PUSH1 0x4 ADD PUSH2 0x302 SWAP2 SWAP1 PUSH2 0xB02 JUMP JUMPDEST PUSH1 0x0 PUSH1 0x20 DUP3 DUP5 SUB SLT ISZERO PUSH2 0x9BA JUMPI PUSH1 0x0 DUP1 REVERT JUMPDEST POP CALLDATALOAD SWAP2 SWAP1 POP JUMP JUMPDEST PUSH4 0x4E487B71 PUSH1 0xE0 SHL PUSH1 0x0 MSTORE PUSH1 0x11 PUSH1 0x4 MSTORE PUSH1 0x24 PUSH1 0x0 REVERT JUMPDEST DUP2 DUP2 SUB DUP2 DUP2 GT ISZERO PUSH2 0x9EA JUMPI PUSH2 0x9EA PUSH2 0x9C1 JUMP JUMPDEST SWAP3 SWAP2 POP POP JUMP JUMPDEST DUP1 DUP3 MUL DUP2 ISZERO DUP3 DUP3 DIV DUP5 EQ OR PUSH2 0x9EA JUMPI PUSH2 0x9EA PUSH2 0x9C1 JUMP JUMPDEST PUSH1 0x0 DUP3 PUSH2 0xA24 JUMPI PUSH4 0x4E487B71 PUSH1 0xE0 SHL PUSH1 0x0 MSTORE PUSH1 0x12 PUSH1 0x4 MSTORE PUSH1 0x24 PUSH1 0x0 REVERT JUMPDEST POP DIV SWAP1 JUMP JUMPDEST PUSH1 0x0 PUSH1 0x20 DUP3 DUP5 SUB SLT ISZERO PUSH2 0xA3B JUMPI PUSH1 0x0 DUP1 REVERT JUMPDEST POP MLOAD SWAP2 SWAP1 POP JUMP JUMPDEST DUP1 DUP3 ADD DUP1 DUP3 GT ISZERO PUSH2 0x9EA JUMPI PUSH2 0x9EA PUSH2 0x9C1 JUMP JUMPDEST PUSH1 0x20 DUP1 DUP3 MSTORE PUSH1 0x2B SWAP1 DUP3 ADD MSTORE PUSH32 0x496E697469616C697A61626C653A20636F6E7472616374206973206E6F742069 PUSH1 0x40 DUP3 ADD MSTORE PUSH11 0x6E697469616C697A696E67 PUSH1 0xA8 SHL PUSH1 0x60 DUP3 ADD MSTORE PUSH1 0x80 ADD SWAP1 JUMP JUMPDEST PUSH1 0x0 PUSH1 0x20 DUP3 DUP5 SUB SLT ISZERO PUSH2 0xAB2 JUMPI PUSH1 0x0 DUP1 REVERT JUMPDEST DUP2 MLOAD DUP1 ISZERO ISZERO DUP2 EQ PUSH2 0x42A JUMPI PUSH1 0x0 DUP1 REVERT JUMPDEST PUSH1 0x0 JUMPDEST DUP4 DUP2 LT ISZERO PUSH2 0xADD JUMPI DUP2 DUP2 ADD MLOAD DUP4 DUP3 ADD MSTORE PUSH1 0x20 ADD PUSH2 0xAC5 JUMP JUMPDEST POP POP PUSH1 0x0 SWAP2 ADD MSTORE JUMP JUMPDEST PUSH1 0x0 DUP3 MLOAD PUSH2 0xAF8 DUP2 DUP5 PUSH1 0x20 DUP8 ADD PUSH2 0xAC2 JUMP JUMPDEST SWAP2 SWAP1 SWAP2 ADD SWAP3 SWAP2 POP POP JUMP JUMPDEST PUSH1 0x20 DUP2 MSTORE PUSH1 0x0 DUP3 MLOAD DUP1 PUSH1 0x20 DUP5 ADD MSTORE PUSH2 0xB21 DUP2 PUSH1 0x40 DUP6 ADD PUSH1 0x20 DUP8 ADD PUSH2 0xAC2 JUMP JUMPDEST PUSH1 0x1F ADD PUSH1 0x1F NOT AND SWAP2 SWAP1 SWAP2 ADD PUSH1 0x40 ADD SWAP3 SWAP2 POP POP JUMP INVALID LOG2 PUSH5 0x6970667358 0x22 SLT KECCAK256 ADD BYTE 0x4D LOG2 DIFFICULTY 0x28 0xCA PUSH2 0xA8C7 PUSH29 0xAFD782E7272A6F09324C39E80216A6BC1BD602364264736F6C63430008 GT STOP CALLER "},"methodIdentifiers":{"amountClaimed()":"ad6b5d04","beneficiary()":"38af3eed","claim()":"4e71d92d","initialize()":"8129fc1c","token()":"fc0c546a","totalAmount()":"1a39d8ef","unvested()":"da919faa","vestEndTimestamp()":"556d1e56","vestStartTimestamp()":"ddb0d2ed","vested()":"fea5657c","vestedOn(uint256)":"aba02235"}},"storageLayout":{"storage":[{"astId":527,"contract":"contracts/vesting/LinearVestingVault.sol:LinearVestingVault","label":"_initialized","offset":0,"slot":"0","type":"t_uint8"},{"astId":530,"contract":"contracts/vesting/LinearVestingVault.sol:LinearVestingVault","label":"_initializing","offset":1,"slot":"0","type":"t_bool"},{"astId":839,"contract":"contracts/vesting/LinearVestingVault.sol:LinearVestingVault","label":"_status","offset":0,"slot":"1","type":"t_uint256"},{"astId":897,"contract":"contracts/vesting/LinearVestingVault.sol:LinearVestingVault","label":"__gap","offset":0,"slot":"2","type":"t_array(t_uint256)49_storage"},{"astId":3908,"contract":"contracts/vesting/LinearVestingVault.sol:LinearVestingVault","label":"amountClaimed","offset":0,"slot":"51","type":"t_uint256"}],"types":{"t_array(t_uint256)49_storage":{"base":"t_uint256","encoding":"inplace","label":"uint256[49]","numberOfBytes":"1568"},"t_bool":{"encoding":"inplace","label":"bool","numberOfBytes":"1"},"t_uint256":{"encoding":"inplace","label":"uint256","numberOfBytes":"32"},"t_uint8":{"encoding":"inplace","label":"uint8","numberOfBytes":"1"}}}}}}