{
  "_format": "hh-sol-artifact-1",
  "contractName": "LinearVestingVault",
  "sourceName": "contracts/vesting/LinearVestingVault.sol",
  "abi": [
    {
      "inputs": [],
      "name": "InvalidClaim",
      "type": "error"
    },
    {
      "inputs": [],
      "name": "InvalidParams",
      "type": "error"
    },
    {
      "inputs": [],
      "name": "NotVested",
      "type": "error"
    },
    {
      "inputs": [],
      "name": "Unauthorized",
      "type": "error"
    },
    {
      "anonymous": false,
      "inputs": [
        {
          "indexed": false,
          "internalType": "address",
          "name": "beneficiary",
          "type": "address"
        },
        {
          "indexed": false,
          "internalType": "address",
          "name": "token",
          "type": "address"
        },
        {
          "indexed": false,
          "internalType": "uint256",
          "name": "amount",
          "type": "uint256"
        }
      ],
      "name": "Claimed",
      "type": "event"
    },
    {
      "anonymous": false,
      "inputs": [
        {
          "indexed": false,
          "internalType": "uint8",
          "name": "version",
          "type": "uint8"
        }
      ],
      "name": "Initialized",
      "type": "event"
    },
    {
      "inputs": [],
      "name": "amountClaimed",
      "outputs": [
        {
          "internalType": "uint256",
          "name": "",
          "type": "uint256"
        }
      ],
      "stateMutability": "view",
      "type": "function"
    },
    {
      "inputs": [],
      "name": "beneficiary",
      "outputs": [
        {
          "internalType": "address",
          "name": "",
          "type": "address"
        }
      ],
      "stateMutability": "pure",
      "type": "function"
    },
    {
      "inputs": [],
      "name": "claim",
      "outputs": [],
      "stateMutability": "nonpayable",
      "type": "function"
    },
    {
      "inputs": [],
      "name": "initialize",
      "outputs": [],
      "stateMutability": "nonpayable",
      "type": "function"
    },
    {
      "inputs": [],
      "name": "token",
      "outputs": [
        {
          "internalType": "contract IERC20Upgradeable",
          "name": "",
          "type": "address"
        }
      ],
      "stateMutability": "pure",
      "type": "function"
    },
    {
      "inputs": [],
      "name": "totalAmount",
      "outputs": [
        {
          "internalType": "uint256",
          "name": "",
          "type": "uint256"
        }
      ],
      "stateMutability": "pure",
      "type": "function"
    },
    {
      "inputs": [],
      "name": "unvested",
      "outputs": [
        {
          "internalType": "uint256",
          "name": "",
          "type": "uint256"
        }
      ],
      "stateMutability": "view",
      "type": "function"
    },
    {
      "inputs": [],
      "name": "vestEndTimestamp",
      "outputs": [
        {
          "internalType": "uint256",
          "name": "",
          "type": "uint256"
        }
      ],
      "stateMutability": "pure",
      "type": "function"
    },
    {
      "inputs": [],
      "name": "vestStartTimestamp",
      "outputs": [
        {
          "internalType": "uint256",
          "name": "",
          "type": "uint256"
        }
      ],
      "stateMutability": "pure",
      "type": "function"
    },
    {
      "inputs": [],
      "name": "vested",
      "outputs": [
        {
          "internalType": "uint256",
          "name": "",
          "type": "uint256"
        }
      ],
      "stateMutability": "view",
      "type": "function"
    },
    {
      "inputs": [
        {
          "internalType": "uint256",
          "name": "timestamp",
          "type": "uint256"
        }
      ],
      "name": "vestedOn",
      "outputs": [
        {
          "internalType": "uint256",
          "name": "amount",
          "type": "uint256"
        }
      ],
      "stateMutability": "view",
      "type": "function"
    }
  ],
  "bytecode": "0x608060405234801561001057600080fd5b50610b6b806100206000396000f3fe608060405234801561001057600080fd5b50600436106100a95760003560e01c8063aba0223511610071578063aba0223514610103578063ad6b5d0414610116578063da919faa1461011f578063ddb0d2ed14610127578063fc0c546a1461012f578063fea5657c1461013757600080fd5b80631a39d8ef146100ae57806338af3eed146100c95780634e71d92d146100e9578063556d1e56146100f35780638129fc1c146100fb575b600080fd5b6100b661013f565b6040519081526020015b60405180910390f35b6100d1610150565b6040516001600160a01b0390911681526020016100c0565b6100f161015c565b005b6100b661025d565b6100f1610269565b6100b66101113660046109a8565b6103b6565b6100b660335481565b6100b6610431565b6100b66104b7565b6100d16104c3565b6100b66104cf565b600061014b60686104da565b905090565b600061014b60146104fc565b610164610521565b61016c610150565b6001600160a01b0316336001600160a01b03161461019c576040516282b42960e81b815260040160405180910390fd5b60006101a66104cf565b9050806000036101c957604051639225b94160e01b815260040160405180910390fd5b6101d28161057a565b6101f66101dd610150565b826101e66104c3565b6001600160a01b03169190610594565b7ff7a40077ff7a04c7e61f6f26fb13774259ddf1b6bce9ecf26a8276cdd399268361021f610150565b6102276104c3565b604080516001600160a01b039384168152929091166020830152810183905260600160405180910390a15061025b60018055565b565b600061014b60486104da565b600054610100900460ff16158080156102895750600054600160ff909116105b806102a35750303b1580156102a3575060005460ff166001145b61030b5760405162461bcd60e51b815260206004820152602e60248201527f496e697469616c697a61626c653a20636f6e747261637420697320616c72656160448201526d191e481a5b9a5d1a585b1a5e995960921b60648201526084015b60405180910390fd5b6000805460ff19166001179055801561032e576000805461ff0019166101001790555b61033661025d565b61033e6104b7565b111561035d57604051635435b28960e11b815260040160405180910390fd5b61036d61036861013f565b610602565b80156103b3576000805461ff0019169055604051600181527f7f26b83ff96e1f2b6a682f133852f6798a09c465da95921460cefb38474024989060200160405180910390a15b50565b6000806103c16104b7565b6103c961025d565b6103d391906109d7565b6103db6104b7565b6103e590856109d7565b6103ed61013f565b6103f791906109f0565b6104019190610a07565b905061040b61013f565b81111561041d5761041a61013f565b90505b60335461042a90826109d7565b9392505050565b600061043b6104cf565b6104436104c3565b6040516370a0823160e01b81523060048201526001600160a01b0391909116906370a0823190602401602060405180830381865afa158015610489573d6000803e3d6000fd5b505050506040513d601f19601f820116820180604052508101906104ad9190610a29565b61014b91906109d7565b600061014b60286104da565b600061014b60006104fc565b600061014b426103b6565b6000806104f1600119368181013560f01c90030190565b929092013592915050565b600080610513600119368181013560f01c90030190565b929092013560601c92915050565b6002600154036105735760405162461bcd60e51b815260206004820152601f60248201527f5265656e7472616e637947756172643a207265656e7472616e742063616c6c006044820152606401610302565b6002600155565b806033600082825461058c9190610a42565b909155505050565b6040516001600160a01b0383166024820152604481018290526105f790849063a9059cbb60e01b906064015b60408051601f198184030181529190526020810180516001600160e01b03166001600160e01b0319909316929092179091526106b2565b505050565b60018055565b600054610100900460ff166106295760405162461bcd60e51b815260040161030290610a55565b610631610784565b600061063b6104c3565b6001600160a01b03160361066257604051635435b28960e11b815260040160405180910390fd5b600061066c610150565b6001600160a01b03160361069357604051635435b28960e11b815260040160405180910390fd5b6103b33330836106a16104c3565b6001600160a01b03169291906107b3565b6000610707826040518060400160405280602081526020017f5361666545524332303a206c6f772d6c6576656c2063616c6c206661696c6564815250856001600160a01b03166107f19092919063ffffffff16565b8051909150156105f757808060200190518101906107259190610aa0565b6105f75760405162461bcd60e51b815260206004820152602a60248201527f5361666545524332303a204552433230206f7065726174696f6e20646964206e6044820152691bdd081cdd58d8d9595960b21b6064820152608401610302565b600054610100900460ff166107ab5760405162461bcd60e51b815260040161030290610a55565b61025b610808565b6040516001600160a01b03808516602483015283166044820152606481018290526107eb9085906323b872dd60e01b906084016105c0565b50505050565b6060610800848460008561082f565b949350505050565b600054610100900460ff166105fc5760405162461bcd60e51b815260040161030290610a55565b6060824710156108905760405162461bcd60e51b815260206004820152602660248201527f416464726573733a20696e73756666696369656e742062616c616e636520666f6044820152651c8818d85b1b60d21b6064820152608401610302565b600080866001600160a01b031685876040516108ac9190610ae6565b60006040518083038185875af1925050503d80600081146108e9576040519150601f19603f3d011682016040523d82523d6000602084013e6108ee565b606091505b50915091506108ff8783838761090a565b979650505050505050565b60608315610979578251600003610972576001600160a01b0385163b6109725760405162461bcd60e51b815260206004820152601d60248201527f416464726573733a2063616c6c20746f206e6f6e2d636f6e74726163740000006044820152606401610302565b5081610800565b610800838381511561098e5781518083602001fd5b8060405162461bcd60e51b81526004016103029190610b02565b6000602082840312156109ba57600080fd5b5035919050565b634e487b7160e01b600052601160045260246000fd5b818103818111156109ea576109ea6109c1565b92915050565b80820281158282048414176109ea576109ea6109c1565b600082610a2457634e487b7160e01b600052601260045260246000fd5b500490565b600060208284031215610a3b57600080fd5b5051919050565b808201808211156109ea576109ea6109c1565b6020808252602b908201527f496e697469616c697a61626c653a20636f6e7472616374206973206e6f74206960408201526a6e697469616c697a696e6760a81b606082015260800190565b600060208284031215610ab257600080fd5b8151801515811461042a57600080fd5b60005b83811015610add578181015183820152602001610ac5565b50506000910152565b60008251610af8818460208701610ac2565b9190910192915050565b6020815260008251806020840152610b21816040850160208701610ac2565b601f01601f1916919091016040019291505056fea2646970667358221220011a4da24428ca61a8c77cafd782e7272a6f09324c39e80216a6bc1bd602364264736f6c63430008110033",
  "linkReferences": {},
  "deployedLinkReferences": {}
}