{
  "_format": "hh-sol-artifact-1",
  "contractName": "LinearVestingVaultFactory",
  "sourceName": "contracts/vesting/LinearVestingVaultFactory.sol",
  "abi": [
    {
      "inputs": [
        {
          "internalType": "address",
          "name": "_implementation",
          "type": "address"
        }
      ],
      "stateMutability": "nonpayable",
      "type": "constructor"
    },
    {
      "inputs": [],
      "name": "CreateFail",
      "type": "error"
    },
    {
      "inputs": [],
      "name": "InvalidParams",
      "type": "error"
    },
    {
      "anonymous": false,
      "inputs": [
        {
          "indexed": true,
          "internalType": "address",
          "name": "token",
          "type": "address"
        },
        {
          "indexed": true,
          "internalType": "address",
          "name": "beneficiary",
          "type": "address"
        },
        {
          "indexed": true,
          "internalType": "address",
          "name": "vault",
          "type": "address"
        }
      ],
      "name": "VaultCreated",
      "type": "event"
    },
    {
      "inputs": [
        {
          "internalType": "address",
          "name": "token",
          "type": "address"
        },
        {
          "internalType": "address",
          "name": "beneficiary",
          "type": "address"
        },
        {
          "internalType": "uint256",
          "name": "startTimestamp",
          "type": "uint256"
        },
        {
          "internalType": "uint256",
          "name": "endTimestamp",
          "type": "uint256"
        },
        {
          "internalType": "uint256",
          "name": "amount",
          "type": "uint256"
        }
      ],
      "name": "createVault",
      "outputs": [
        {
          "internalType": "address",
          "name": "",
          "type": "address"
        }
      ],
      "stateMutability": "nonpayable",
      "type": "function"
    },
    {
      "inputs": [],
      "name": "implementation",
      "outputs": [
        {
          "internalType": "address",
          "name": "",
          "type": "address"
        }
      ],
      "stateMutability": "view",
      "type": "function"
    }
  ],
  "bytecode": "0x60a060405234801561001057600080fd5b506040516107ff3803806107ff83398101604081905261002f91610040565b6001600160a01b0316608052610070565b60006020828403121561005257600080fd5b81516001600160a01b038116811461006957600080fd5b9392505050565b60805161076f610090600039600081816040015260f0015261076f6000f3fe608060405234801561001057600080fd5b50600436106100365760003560e01c80635c60da1b1461003b578063dd83514e1461007e575b600080fd5b6100627f000000000000000000000000000000000000000000000000000000000000000081565b6040516001600160a01b03909116815260200160405180910390f35b61006261008c366004610650565b6040516bffffffffffffffffffffffff19606087811b8216602084015286901b166034820152604881018490526068810183905260888101829052600090819060a80160408051601f19818403018152919052905060006101166001600160a01b037f00000000000000000000000000000000000000000000000000000000000000001683610249565b905061012d6001600160a01b038916333087610368565b60405163095ea7b360e01b81526001600160a01b0382811660048301526024820186905289169063095ea7b3906044016020604051808303816000875af115801561017c573d6000803e3d6000fd5b505050506040513d601f19601f820116820180604052508101906101a0919061069d565b50806001600160a01b0316638129fc1c6040518163ffffffff1660e01b8152600401600060405180830381600087803b1580156101dc57600080fd5b505af11580156101f0573d6000803e3d6000fd5b50505050806001600160a01b0316876001600160a01b0316896001600160a01b03167f897c133dfbfe1f6239e98b4ffd7e4f6c86a62350a131a7a37790419f58af02f960405160405180910390a4979650505050505050565b8051604051613d6160f01b8152603a820160f081811b6002848101919091526680600b3d3981f360c81b600485015264363d3d376160d81b600b8501528401901b6010830181905268603836393d3d3d366160b81b6012840152601b83015262013d7360e81b601d830152606085901b6020808401919091526e5af43d82803e903d91603657fd5bf360881b60348401526000939260458401929186019084604382015b6020821061030c5783518152602093840193601f1990920191016102ed565b835160001960208490036101000a0119908116825260f088901b91830191825286846000f098506001600160a01b03891661035a57604051631d7fde3160e31b815260040160405180910390fd5b505050505050505092915050565b604080516001600160a01b0385811660248301528416604482015260648082018490528251808303909101815260849091019091526020810180516001600160e01b03166323b872dd60e01b1790526103c29085906103c8565b50505050565b600061041d826040518060400160405280602081526020017f5361666545524332303a206c6f772d6c6576656c2063616c6c206661696c6564815250856001600160a01b03166104a49092919063ffffffff16565b80519091501561049f578080602001905181019061043b919061069d565b61049f5760405162461bcd60e51b815260206004820152602a60248201527f5361666545524332303a204552433230206f7065726174696f6e20646964206e6044820152691bdd081cdd58d8d9595960b21b60648201526084015b60405180910390fd5b505050565b60606104b384846000856104bb565b949350505050565b60608247101561051c5760405162461bcd60e51b815260206004820152602660248201527f416464726573733a20696e73756666696369656e742062616c616e636520666f6044820152651c8818d85b1b60d21b6064820152608401610496565b600080866001600160a01b0316858760405161053891906106ea565b60006040518083038185875af1925050503d8060008114610575576040519150601f19603f3d011682016040523d82523d6000602084013e61057a565b606091505b509150915061058b87838387610596565b979650505050505050565b606083156106055782516000036105fe576001600160a01b0385163b6105fe5760405162461bcd60e51b815260206004820152601d60248201527f416464726573733a2063616c6c20746f206e6f6e2d636f6e74726163740000006044820152606401610496565b50816104b3565b6104b3838381511561061a5781518083602001fd5b8060405162461bcd60e51b81526004016104969190610706565b80356001600160a01b038116811461064b57600080fd5b919050565b600080600080600060a0868803121561066857600080fd5b61067186610634565b945061067f60208701610634565b94979496505050506040830135926060810135926080909101359150565b6000602082840312156106af57600080fd5b815180151581146106bf57600080fd5b9392505050565b60005b838110156106e15781810151838201526020016106c9565b50506000910152565b600082516106fc8184602087016106c6565b9190910192915050565b60208152600082518060208401526107258160408501602087016106c6565b601f01601f1916919091016040019291505056fea264697066735822122041241dc375fe7f934056171d8ca0c5989231ff510543935a41a1533d21459a2b64736f6c63430008110033",
  "linkReferences": {},
  "deployedLinkReferences": {}
}