{
  "_format": "hh-sol-artifact-1",
  "contractName": "TokenSale",
  "sourceName": "contracts/TokenSale.sol",
  "abi": [
    {
      "inputs": [
        {
          "internalType": "address",
          "name": "_USDTaddress",
          "type": "address"
        },
        {
          "internalType": "address",
          "name": "_haciendaAddress",
          "type": "address"
        },
        {
          "internalType": "address",
          "name": "_vestingAddress",
          "type": "address"
        },
        {
          "internalType": "uint256",
          "name": "_cost",
          "type": "uint256"
        },
        {
          "internalType": "uint256",
          "name": "_max",
          "type": "uint256"
        },
        {
          "internalType": "uint256",
          "name": "_min",
          "type": "uint256"
        }
      ],
      "stateMutability": "nonpayable",
      "type": "constructor"
    },
    {
      "anonymous": false,
      "inputs": [
        {
          "indexed": true,
          "internalType": "address",
          "name": "previousOwner",
          "type": "address"
        },
        {
          "indexed": true,
          "internalType": "address",
          "name": "newOwner",
          "type": "address"
        }
      ],
      "name": "OwnershipTransferred",
      "type": "event"
    },
    {
      "anonymous": false,
      "inputs": [
        {
          "indexed": false,
          "internalType": "address",
          "name": "to",
          "type": "address"
        },
        {
          "indexed": false,
          "internalType": "uint256",
          "name": "amount",
          "type": "uint256"
        }
      ],
      "name": "swap",
      "type": "event"
    },
    {
      "inputs": [
        {
          "internalType": "address[]",
          "name": "_users",
          "type": "address[]"
        }
      ],
      "name": "batchWhitelist",
      "outputs": [],
      "stateMutability": "nonpayable",
      "type": "function"
    },
    {
      "inputs": [
        {
          "internalType": "uint256",
          "name": "amount",
          "type": "uint256"
        }
      ],
      "name": "buyTokens",
      "outputs": [
        {
          "internalType": "address",
          "name": "",
          "type": "address"
        }
      ],
      "stateMutability": "nonpayable",
      "type": "function"
    },
    {
      "inputs": [],
      "name": "getIUsdtAddress",
      "outputs": [
        {
          "internalType": "address",
          "name": "",
          "type": "address"
        }
      ],
      "stateMutability": "view",
      "type": "function"
    },
    {
      "inputs": [],
      "name": "getIVestingAddress",
      "outputs": [
        {
          "internalType": "address",
          "name": "",
          "type": "address"
        }
      ],
      "stateMutability": "view",
      "type": "function"
    },
    {
      "inputs": [],
      "name": "getMax",
      "outputs": [
        {
          "internalType": "uint256",
          "name": "",
          "type": "uint256"
        }
      ],
      "stateMutability": "view",
      "type": "function"
    },
    {
      "inputs": [],
      "name": "getMin",
      "outputs": [
        {
          "internalType": "uint256",
          "name": "",
          "type": "uint256"
        }
      ],
      "stateMutability": "view",
      "type": "function"
    },
    {
      "inputs": [],
      "name": "getTokenAddress",
      "outputs": [
        {
          "internalType": "address",
          "name": "",
          "type": "address"
        }
      ],
      "stateMutability": "view",
      "type": "function"
    },
    {
      "inputs": [
        {
          "internalType": "address",
          "name": "_address",
          "type": "address"
        }
      ],
      "name": "isWhitelisted",
      "outputs": [
        {
          "internalType": "bool",
          "name": "",
          "type": "bool"
        }
      ],
      "stateMutability": "view",
      "type": "function"
    },
    {
      "inputs": [],
      "name": "owner",
      "outputs": [
        {
          "internalType": "address",
          "name": "",
          "type": "address"
        }
      ],
      "stateMutability": "view",
      "type": "function"
    },
    {
      "inputs": [],
      "name": "renounceOwnership",
      "outputs": [],
      "stateMutability": "nonpayable",
      "type": "function"
    },
    {
      "inputs": [
        {
          "internalType": "address",
          "name": "newOwner",
          "type": "address"
        }
      ],
      "name": "transferOwnership",
      "outputs": [],
      "stateMutability": "nonpayable",
      "type": "function"
    },
    {
      "inputs": [
        {
          "internalType": "address",
          "name": "",
          "type": "address"
        }
      ],
      "name": "whitelisted",
      "outputs": [
        {
          "internalType": "bool",
          "name": "",
          "type": "bool"
        }
      ],
      "stateMutability": "view",
      "type": "function"
    },
    {
      "inputs": [],
      "name": "withdrawall",
      "outputs": [],
      "stateMutability": "nonpayable",
      "type": "function"
    }
  ],
  "bytecode": "0x608060405234801561001057600080fd5b50604051610d0a380380610d0a83398101604081905261002f916100f6565b6100383361008a565b600180546001600160a01b03199081166001600160a01b039889161790915560028054821696881696909617909555600380549095169390951692909217909255600491909155600555600655610155565b600080546001600160a01b038381166001600160a01b0319831681178455604051919092169283917f8be0079c531659141344cd1fd0a4f28419497f9722a3daafe3b4186f6b6457e09190a35050565b80516001600160a01b03811681146100f157600080fd5b919050565b60008060008060008060c0878903121561010f57600080fd5b610118876100da565b9550610126602088016100da565b9450610134604088016100da565b9350606087015192506080870151915060a087015190509295509295509295565b610ba6806101646000396000f3fe608060405234801561001057600080fd5b50600436106100cf5760003560e01c806382b665b31161008c578063d6362e9711610066578063d6362e97146101af578063d936547e146101b7578063f2fde38b146101da578063f66c7281146101ed57600080fd5b806382b665b31461017c5780638da5cb5b1461018d578063a1eea1cc1461019e57600080fd5b806310fe9ae8146100d45780633075f552146100fe5780633610724e1461011057806339ee0661146101235780633af32abf14610138578063715018a614610174575b600080fd5b6002546001600160a01b03165b6040516001600160a01b0390911681526020015b60405180910390f35b6005545b6040519081526020016100f5565b6100e161011e366004610949565b6101f5565b610136610131366004610998565b61064b565b005b610164610146366004610a5d565b6001600160a01b031660009081526007602052604090205460ff1690565b60405190151581526020016100f5565b61013661070c565b6003546001600160a01b03166100e1565b6000546001600160a01b03166100e1565b6001546001600160a01b03166100e1565b600654610102565b6101646101c5366004610a5d565b60076020526000908152604090205460ff1681565b6101366101e8366004610a5d565b610720565b610136610799565b3360009081526007602052604081205460ff1615156001146102515760405162461bcd60e51b815260206004820152601060248201526f1bdb9b1e4815da1a5d195b1a5cdd195960821b60448201526064015b60405180910390fd5b60055482111561028e5760405162461bcd60e51b81526020600482015260086024820152670e8dede40daeac6d60c31b6044820152606401610248565b6006548210156102cd5760405162461bcd60e51b815260206004820152600a602482015269746f6f206c6974746c6560b01b6044820152606401610248565b6001546004546001600160a01b03909116906323b872dd90339030906102f6906103e890610a97565b6103009087610ab9565b6040516001600160e01b031960e086901b1681526001600160a01b03938416600482015292909116602483015260448201526064016020604051808303816000875af1158015610354573d6000803e3d6000fd5b505050506040513d601f19601f820116820180604052508101906103789190610ad6565b506002546001600160a01b03166323b872dd61039c6000546001600160a01b031690565b6040516001600160e01b031960e084901b1681526001600160a01b039091166004820152306024820152604481018590526064016020604051808303816000875af11580156103ef573d6000803e3d6000fd5b505050506040513d601f19601f820116820180604052508101906104139190610ad6565b506002546001600160a01b031663a9059cbb33610431600a86610a97565b6040516001600160e01b031960e085901b1681526001600160a01b03909216600483015260248201526044016020604051808303816000875af115801561047c573d6000803e3d6000fd5b505050506040513d601f19601f820116820180604052508101906104a09190610ad6565b506002546003546001600160a01b039182169163095ea7b391166104c5600a86610a97565b6104d0906009610ab9565b6040516001600160e01b031960e085901b1681526001600160a01b03909216600483015260248201526044016020604051808303816000875af115801561051b573d6000803e3d6000fd5b505050506040513d601f19601f8201168201806040525081019061053f9190610ad6565b506003546002546000916001600160a01b039081169163dd83514e9116334261056c816301e13380610af8565b610577600a8a610a97565b610582906009610ab9565b6040516001600160e01b031960e088901b1681526001600160a01b03958616600482015294909316602485015260448401919091526064830152608482015260a4016020604051808303816000875af11580156105e3573d6000803e3d6000fd5b505050506040513d601f19601f820116820180604052508101906106079190610b0b565b60408051338152602081018690529192507fd004f0f70a7b16b64544db702b3f5d807973701473caf1e8c3edfe513ad8eedb910160405180910390a190505b919050565b6000546001600160a01b031633146106a55760405162461bcd60e51b815260206004820152601860248201527f4f6e6c79206f776e65722063616e2077686974656c69737400000000000000006044820152606401610248565b805160005b818110156107075760008382815181106106c6576106c6610b28565b6020908102919091018101516001600160a01b03166000908152600790915260409020805460ff1916600117905550806106ff81610b3e565b9150506106aa565b505050565b61071461089f565b61071e60006108f9565b565b61072861089f565b6001600160a01b03811661078d5760405162461bcd60e51b815260206004820152602660248201527f4f776e61626c653a206e6577206f776e657220697320746865207a65726f206160448201526564647265737360d01b6064820152608401610248565b610796816108f9565b50565b6107a161089f565b6001546001600160a01b031663a9059cbb6107c46000546001600160a01b031690565b6001546040516370a0823160e01b81523060048201526001600160a01b03909116906370a0823190602401602060405180830381865afa15801561080c573d6000803e3d6000fd5b505050506040513d601f19601f820116820180604052508101906108309190610b57565b6040516001600160e01b031960e085901b1681526001600160a01b03909216600483015260248201526044016020604051808303816000875af115801561087b573d6000803e3d6000fd5b505050506040513d601f19601f820116820180604052508101906107969190610ad6565b6000546001600160a01b0316331461071e5760405162461bcd60e51b815260206004820181905260248201527f4f776e61626c653a2063616c6c6572206973206e6f7420746865206f776e65726044820152606401610248565b600080546001600160a01b038381166001600160a01b0319831681178455604051919092169283917f8be0079c531659141344cd1fd0a4f28419497f9722a3daafe3b4186f6b6457e09190a35050565b60006020828403121561095b57600080fd5b5035919050565b634e487b7160e01b600052604160045260246000fd5b6001600160a01b038116811461079657600080fd5b803561064681610978565b600060208083850312156109ab57600080fd5b823567ffffffffffffffff808211156109c357600080fd5b818501915085601f8301126109d757600080fd5b8135818111156109e9576109e9610962565b8060051b604051601f19603f83011681018181108582111715610a0e57610a0e610962565b604052918252848201925083810185019188831115610a2c57600080fd5b938501935b82851015610a5157610a428561098d565b84529385019392850192610a31565b98975050505050505050565b600060208284031215610a6f57600080fd5b8135610a7a81610978565b9392505050565b634e487b7160e01b600052601160045260246000fd5b600082610ab457634e487b7160e01b600052601260045260246000fd5b500490565b8082028115828204841417610ad057610ad0610a81565b92915050565b600060208284031215610ae857600080fd5b81518015158114610a7a57600080fd5b80820180821115610ad057610ad0610a81565b600060208284031215610b1d57600080fd5b8151610a7a81610978565b634e487b7160e01b600052603260045260246000fd5b600060018201610b5057610b50610a81565b5060010190565b600060208284031215610b6957600080fd5b505191905056fea2646970667358221220c87c9dbbea3a791e7bd3dc8cf731464c83f036e47e8e3ded62849434dfb79d6864736f6c63430008110033",
  "linkReferences": {},
  "deployedLinkReferences": {}
}