{
  "_format": "hh-sol-artifact-1",
  "contractName": "ts",
  "sourceName": "contracts/ts.sol",
  "abi": [
    {
      "inputs": [],
      "name": "end",
      "outputs": [
        {
          "internalType": "uint256",
          "name": "",
          "type": "uint256"
        }
      ],
      "stateMutability": "view",
      "type": "function"
    },
    {
      "inputs": [],
      "name": "start",
      "outputs": [
        {
          "internalType": "uint256",
          "name": "",
          "type": "uint256"
        }
      ],
      "stateMutability": "view",
      "type": "function"
    }
  ],
  "bytecode": "0x608060405234801561001057600080fd5b5060cb8061001f6000396000f3fe6080604052348015600f57600080fd5b506004361060325760003560e01c8063be9a6555146037578063efbe1c1c14604f575b600080fd5b603d6055565b60405190815260200160405180910390f35b603d6066565b60006061426101f4606f565b905090565b60006061426104b05b80820180821115608f57634e487b7160e01b600052601160045260246000fd5b9291505056fea2646970667358221220c864c14c4a09c012ef7b2d9cabfefae700d8a75f00a92d58259833bf9d9b3e9a64736f6c63430008110033",
  "linkReferences": {},
  "deployedLinkReferences": {}
}