{
  "_format": "hh-sol-artifact-1",
  "contractName": "Hacienda",
  "sourceName": "contracts/Hacienda.sol",
  "abi": [
    {
      "inputs": [],
      "stateMutability": "nonpayable",
      "type": "constructor"
    },
    {
      "anonymous": false,
      "inputs": [
        {
          "indexed": false,
          "internalType": "address",
          "name": "previousAdmin",
          "type": "address"
        },
        {
          "indexed": false,
          "internalType": "address",
          "name": "newAdmin",
          "type": "address"
        }
      ],
      "name": "AdminChanged",
      "type": "event"
    },
    {
      "anonymous": false,
      "inputs": [
        {
          "indexed": true,
          "internalType": "address",
          "name": "owner",
          "type": "address"
        },
        {
          "indexed": true,
          "internalType": "address",
          "name": "spender",
          "type": "address"
        },
        {
          "indexed": false,
          "internalType": "uint256",
          "name": "value",
          "type": "uint256"
        }
      ],
      "name": "Approval",
      "type": "event"
    },
    {
      "anonymous": false,
      "inputs": [
        {
          "indexed": true,
          "internalType": "address",
          "name": "beacon",
          "type": "address"
        }
      ],
      "name": "BeaconUpgraded",
      "type": "event"
    },
    {
      "anonymous": false,
      "inputs": [
        {
          "indexed": false,
          "internalType": "uint8",
          "name": "version",
          "type": "uint8"
        }
      ],
      "name": "Initialized",
      "type": "event"
    },
    {
      "anonymous": false,
      "inputs": [
        {
          "indexed": true,
          "internalType": "address",
          "name": "previousOwner",
          "type": "address"
        },
        {
          "indexed": true,
          "internalType": "address",
          "name": "newOwner",
          "type": "address"
        }
      ],
      "name": "OwnershipTransferred",
      "type": "event"
    },
    {
      "anonymous": false,
      "inputs": [
        {
          "indexed": true,
          "internalType": "address",
          "name": "from",
          "type": "address"
        },
        {
          "indexed": true,
          "internalType": "address",
          "name": "to",
          "type": "address"
        },
        {
          "indexed": false,
          "internalType": "uint256",
          "name": "value",
          "type": "uint256"
        }
      ],
      "name": "Transfer",
      "type": "event"
    },
    {
      "anonymous": false,
      "inputs": [
        {
          "indexed": true,
          "internalType": "address",
          "name": "implementation",
          "type": "address"
        }
      ],
      "name": "Upgraded",
      "type": "event"
    },
    {
      "inputs": [
        {
          "internalType": "address",
          "name": "owner",
          "type": "address"
        },
        {
          "internalType": "address",
          "name": "spender",
          "type": "address"
        }
      ],
      "name": "allowance",
      "outputs": [
        {
          "internalType": "uint256",
          "name": "",
          "type": "uint256"
        }
      ],
      "stateMutability": "view",
      "type": "function"
    },
    {
      "inputs": [
        {
          "internalType": "address",
          "name": "spender",
          "type": "address"
        },
        {
          "internalType": "uint256",
          "name": "amount",
          "type": "uint256"
        }
      ],
      "name": "approve",
      "outputs": [
        {
          "internalType": "bool",
          "name": "",
          "type": "bool"
        }
      ],
      "stateMutability": "nonpayable",
      "type": "function"
    },
    {
      "inputs": [
        {
          "internalType": "address",
          "name": "account",
          "type": "address"
        }
      ],
      "name": "balanceOf",
      "outputs": [
        {
          "internalType": "uint256",
          "name": "",
          "type": "uint256"
        }
      ],
      "stateMutability": "view",
      "type": "function"
    },
    {
      "inputs": [],
      "name": "decimals",
      "outputs": [
        {
          "internalType": "uint8",
          "name": "",
          "type": "uint8"
        }
      ],
      "stateMutability": "view",
      "type": "function"
    },
    {
      "inputs": [
        {
          "internalType": "address",
          "name": "spender",
          "type": "address"
        },
        {
          "internalType": "uint256",
          "name": "subtractedValue",
          "type": "uint256"
        }
      ],
      "name": "decreaseAllowance",
      "outputs": [
        {
          "internalType": "bool",
          "name": "",
          "type": "bool"
        }
      ],
      "stateMutability": "nonpayable",
      "type": "function"
    },
    {
      "inputs": [
        {
          "internalType": "address",
          "name": "spender",
          "type": "address"
        },
        {
          "internalType": "uint256",
          "name": "addedValue",
          "type": "uint256"
        }
      ],
      "name": "increaseAllowance",
      "outputs": [
        {
          "internalType": "bool",
          "name": "",
          "type": "bool"
        }
      ],
      "stateMutability": "nonpayable",
      "type": "function"
    },
    {
      "inputs": [],
      "name": "initialize",
      "outputs": [],
      "stateMutability": "nonpayable",
      "type": "function"
    },
    {
      "inputs": [],
      "name": "name",
      "outputs": [
        {
          "internalType": "string",
          "name": "",
          "type": "string"
        }
      ],
      "stateMutability": "view",
      "type": "function"
    },
    {
      "inputs": [],
      "name": "owner",
      "outputs": [
        {
          "internalType": "address",
          "name": "",
          "type": "address"
        }
      ],
      "stateMutability": "view",
      "type": "function"
    },
    {
      "inputs": [],
      "name": "proxiableUUID",
      "outputs": [
        {
          "internalType": "bytes32",
          "name": "",
          "type": "bytes32"
        }
      ],
      "stateMutability": "view",
      "type": "function"
    },
    {
      "inputs": [],
      "name": "renounceOwnership",
      "outputs": [],
      "stateMutability": "nonpayable",
      "type": "function"
    },
    {
      "inputs": [],
      "name": "symbol",
      "outputs": [
        {
          "internalType": "string",
          "name": "",
          "type": "string"
        }
      ],
      "stateMutability": "view",
      "type": "function"
    },
    {
      "inputs": [],
      "name": "totalSupply",
      "outputs": [
        {
          "internalType": "uint256",
          "name": "",
          "type": "uint256"
        }
      ],
      "stateMutability": "view",
      "type": "function"
    },
    {
      "inputs": [
        {
          "internalType": "address",
          "name": "to",
          "type": "address"
        },
        {
          "internalType": "uint256",
          "name": "amount",
          "type": "uint256"
        }
      ],
      "name": "transfer",
      "outputs": [
        {
          "internalType": "bool",
          "name": "",
          "type": "bool"
        }
      ],
      "stateMutability": "nonpayable",
      "type": "function"
    },
    {
      "inputs": [
        {
          "internalType": "address",
          "name": "from",
          "type": "address"
        },
        {
          "internalType": "address",
          "name": "to",
          "type": "address"
        },
        {
          "internalType": "uint256",
          "name": "amount",
          "type": "uint256"
        }
      ],
      "name": "transferFrom",
      "outputs": [
        {
          "internalType": "bool",
          "name": "",
          "type": "bool"
        }
      ],
      "stateMutability": "nonpayable",
      "type": "function"
    },
    {
      "inputs": [
        {
          "internalType": "address",
          "name": "newOwner",
          "type": "address"
        }
      ],
      "name": "transferOwnership",
      "outputs": [],
      "stateMutability": "nonpayable",
      "type": "function"
    },
    {
      "inputs": [
        {
          "internalType": "address",
          "name": "newImplementation",
          "type": "address"
        }
      ],
      "name": "upgradeTo",
      "outputs": [],
      "stateMutability": "nonpayable",
      "type": "function"
    },
    {
      "inputs": [
        {
          "internalType": "address",
          "name": "newImplementation",
          "type": "address"
        },
        {
          "internalType": "bytes",
          "name": "data",
          "type": "bytes"
        }
      ],
      "name": "upgradeToAndCall",
      "outputs": [],
      "stateMutability": "payable",
      "type": "function"
    }
  ],
  "bytecode": "0x60a06040523060805234801561001457600080fd5b5061001d610022565b6100e2565b600054610100900460ff161561008e5760405162461bcd60e51b815260206004820152602760248201527f496e697469616c697a61626c653a20636f6e747261637420697320696e697469604482015266616c697a696e6760c81b606482015260840160405180910390fd5b60005460ff90811610156100e0576000805460ff191660ff9081179091556040519081527f7f26b83ff96e1f2b6a682f133852f6798a09c465da95921460cefb38474024989060200160405180910390a15b565b6080516118ea61011960003960008181610427015281816104700152818161053101528181610571015261060401526118ea6000f3fe6080604052600436106101095760003560e01c806370a082311161009557806395d89b411161006457806395d89b41146102b6578063a457c2d7146102cb578063a9059cbb146102eb578063dd62ed3e1461030b578063f2fde38b1461032b57600080fd5b806370a082311461022e578063715018a6146102645780638129fc1c146102795780638da5cb5b1461028e57600080fd5b8063313ce567116100dc578063313ce567146101a85780633659cfe6146101c457806339509351146101e65780634f1ef2861461020657806352d1902d1461021957600080fd5b806306fdde031461010e578063095ea7b31461013957806318160ddd1461016957806323b872dd14610188575b600080fd5b34801561011a57600080fd5b5061012361034b565b60405161013091906112ff565b60405180910390f35b34801561014557600080fd5b5061015961015436600461134e565b6103dd565b6040519015158152602001610130565b34801561017557600080fd5b506035545b604051908152602001610130565b34801561019457600080fd5b506101596101a3366004611378565b6103f7565b3480156101b457600080fd5b5060405160128152602001610130565b3480156101d057600080fd5b506101e46101df3660046113b4565b61041d565b005b3480156101f257600080fd5b5061015961020136600461134e565b610505565b6101e46102143660046113e5565b610527565b34801561022557600080fd5b5061017a6105f7565b34801561023a57600080fd5b5061017a6102493660046113b4565b6001600160a01b031660009081526033602052604090205490565b34801561027057600080fd5b506101e46106aa565b34801561028557600080fd5b506101e46106be565b34801561029a57600080fd5b506065546040516001600160a01b039091168152602001610130565b3480156102c257600080fd5b5061012361083f565b3480156102d757600080fd5b506101596102e636600461134e565b61084e565b3480156102f757600080fd5b5061015961030636600461134e565b6108d4565b34801561031757600080fd5b5061017a6103263660046114a7565b6108e2565b34801561033757600080fd5b506101e46103463660046113b4565b61090d565b60606036805461035a906114da565b80601f0160208091040260200160405190810160405280929190818152602001828054610386906114da565b80156103d35780601f106103a8576101008083540402835291602001916103d3565b820191906000526020600020905b8154815290600101906020018083116103b657829003601f168201915b5050505050905090565b6000336103eb818585610983565b60019150505b92915050565b600033610405858285610aa7565b610410858585610b21565b60019150505b9392505050565b6001600160a01b037f000000000000000000000000000000000000000000000000000000000000000016300361046e5760405162461bcd60e51b815260040161046590611514565b60405180910390fd5b7f00000000000000000000000000000000000000000000000000000000000000006001600160a01b03166104b760008051602061186e833981519152546001600160a01b031690565b6001600160a01b0316146104dd5760405162461bcd60e51b815260040161046590611560565b6104e681610ccc565b6040805160008082526020820190925261050291839190610cd4565b50565b6000336103eb81858561051883836108e2565b61052291906115c2565b610983565b6001600160a01b037f000000000000000000000000000000000000000000000000000000000000000016300361056f5760405162461bcd60e51b815260040161046590611514565b7f00000000000000000000000000000000000000000000000000000000000000006001600160a01b03166105b860008051602061186e833981519152546001600160a01b031690565b6001600160a01b0316146105de5760405162461bcd60e51b815260040161046590611560565b6105e782610ccc565b6105f382826001610cd4565b5050565b6000306001600160a01b037f000000000000000000000000000000000000000000000000000000000000000016146106975760405162461bcd60e51b815260206004820152603860248201527f555550535570677261646561626c653a206d757374206e6f742062652063616c60448201527f6c6564207468726f7567682064656c656761746563616c6c00000000000000006064820152608401610465565b5060008051602061186e83398151915290565b6106b2610e44565b6106bc6000610e9e565b565b600054610100900460ff16158080156106de5750600054600160ff909116105b806106f85750303b1580156106f8575060005460ff166001145b61075b5760405162461bcd60e51b815260206004820152602e60248201527f496e697469616c697a61626c653a20636f6e747261637420697320616c72656160448201526d191e481a5b9a5d1a585b1a5e995960921b6064820152608401610465565b6000805460ff19166001179055801561077e576000805461ff0019166101001790555b6107c46040518060400160405280600881526020016748616369656e646160c01b815250604051806040016040528060048152602001634841444160e01b815250610ef0565b6107cc610f21565b6107d4610f50565b6107f7336107e46012600a6116b9565b6107f2906305f5e1006116c8565b610f77565b8015610502576000805461ff0019169055604051600181527f7f26b83ff96e1f2b6a682f133852f6798a09c465da95921460cefb38474024989060200160405180910390a150565b60606037805461035a906114da565b6000338161085c82866108e2565b9050838110156108bc5760405162461bcd60e51b815260206004820152602560248201527f45524332303a2064656372656173656420616c6c6f77616e63652062656c6f77604482015264207a65726f60d81b6064820152608401610465565b6108c98286868403610983565b506001949350505050565b6000336103eb818585610b21565b6001600160a01b03918216600090815260346020908152604080832093909416825291909152205490565b610915610e44565b6001600160a01b03811661097a5760405162461bcd60e51b815260206004820152602660248201527f4f776e61626c653a206e6577206f776e657220697320746865207a65726f206160448201526564647265737360d01b6064820152608401610465565b61050281610e9e565b6001600160a01b0383166109e55760405162461bcd60e51b8152602060048201526024808201527f45524332303a20617070726f76652066726f6d20746865207a65726f206164646044820152637265737360e01b6064820152608401610465565b6001600160a01b038216610a465760405162461bcd60e51b815260206004820152602260248201527f45524332303a20617070726f766520746f20746865207a65726f206164647265604482015261737360f01b6064820152608401610465565b6001600160a01b0383811660008181526034602090815260408083209487168084529482529182902085905590518481527f8c5be1e5ebec7d5bd14f71427d1e84f3dd0314c0f7b2291e5b200ac8c7c3b925910160405180910390a3505050565b6000610ab384846108e2565b90506000198114610b1b5781811015610b0e5760405162461bcd60e51b815260206004820152601d60248201527f45524332303a20696e73756666696369656e7420616c6c6f77616e63650000006044820152606401610465565b610b1b8484848403610983565b50505050565b6001600160a01b038316610b855760405162461bcd60e51b815260206004820152602560248201527f45524332303a207472616e736665722066726f6d20746865207a65726f206164604482015264647265737360d81b6064820152608401610465565b6001600160a01b038216610be75760405162461bcd60e51b815260206004820152602360248201527f45524332303a207472616e7366657220746f20746865207a65726f206164647260448201526265737360e81b6064820152608401610465565b6001600160a01b03831660009081526033602052604090205481811015610c5f5760405162461bcd60e51b815260206004820152602660248201527f45524332303a207472616e7366657220616d6f756e7420657863656564732062604482015265616c616e636560d01b6064820152608401610465565b6001600160a01b0380851660008181526033602052604080822086860390559286168082529083902080548601905591517fddf252ad1be2c89b69c2b068fc378daa952ba7f163c4a11628f55a4df523b3ef90610cbf9086815260200190565b60405180910390a3610b1b565b610502610e44565b7f4910fdfa16fed3260ed0e7147f7cc6da11a60208b5b9406d12a635614ffd91435460ff1615610d0c57610d0783611038565b505050565b826001600160a01b03166352d1902d6040518163ffffffff1660e01b8152600401602060405180830381865afa925050508015610d66575060408051601f3d908101601f19168201909252610d63918101906116df565b60015b610dc95760405162461bcd60e51b815260206004820152602e60248201527f45524331393637557067726164653a206e657720696d706c656d656e7461746960448201526d6f6e206973206e6f74205555505360901b6064820152608401610465565b60008051602061186e8339815191528114610e385760405162461bcd60e51b815260206004820152602960248201527f45524331393637557067726164653a20756e737570706f727465642070726f786044820152681a58589b195555525160ba1b6064820152608401610465565b50610d078383836110d4565b6065546001600160a01b031633146106bc5760405162461bcd60e51b815260206004820181905260248201527f4f776e61626c653a2063616c6c6572206973206e6f7420746865206f776e65726044820152606401610465565b606580546001600160a01b038381166001600160a01b0319831681179093556040519116919082907f8be0079c531659141344cd1fd0a4f28419497f9722a3daafe3b4186f6b6457e090600090a35050565b600054610100900460ff16610f175760405162461bcd60e51b8152600401610465906116f8565b6105f382826110f9565b600054610100900460ff16610f485760405162461bcd60e51b8152600401610465906116f8565b6106bc611139565b600054610100900460ff166106bc5760405162461bcd60e51b8152600401610465906116f8565b6001600160a01b038216610fcd5760405162461bcd60e51b815260206004820152601f60248201527f45524332303a206d696e7420746f20746865207a65726f2061646472657373006044820152606401610465565b8060356000828254610fdf91906115c2565b90915550506001600160a01b0382166000818152603360209081526040808320805486019055518481527fddf252ad1be2c89b69c2b068fc378daa952ba7f163c4a11628f55a4df523b3ef910160405180910390a35050565b6001600160a01b0381163b6110a55760405162461bcd60e51b815260206004820152602d60248201527f455243313936373a206e657720696d706c656d656e746174696f6e206973206e60448201526c1bdd08184818dbdb9d1c9858dd609a1b6064820152608401610465565b60008051602061186e83398151915280546001600160a01b0319166001600160a01b0392909216919091179055565b6110dd83611169565b6000825111806110ea5750805b15610d0757610b1b83836111a9565b600054610100900460ff166111205760405162461bcd60e51b8152600401610465906116f8565b603661112c8382611791565b506037610d078282611791565b600054610100900460ff166111605760405162461bcd60e51b8152600401610465906116f8565b6106bc33610e9e565b61117281611038565b6040516001600160a01b038216907fbc7cd75a20ee27fd9adebab32041f755214dbc6bffa90cc0225b39da2e5c2d3b90600090a250565b60606001600160a01b0383163b6112115760405162461bcd60e51b815260206004820152602660248201527f416464726573733a2064656c65676174652063616c6c20746f206e6f6e2d636f6044820152651b9d1c9858dd60d21b6064820152608401610465565b600080846001600160a01b03168460405161122c9190611851565b600060405180830381855af49150503d8060008114611267576040519150601f19603f3d011682016040523d82523d6000602084013e61126c565b606091505b5091509150611294828260405180606001604052806027815260200161188e6027913961129d565b95945050505050565b606083156112ac575081610416565b61041683838151156112c15781518083602001fd5b8060405162461bcd60e51b815260040161046591906112ff565b60005b838110156112f65781810151838201526020016112de565b50506000910152565b602081526000825180602084015261131e8160408501602087016112db565b601f01601f19169190910160400192915050565b80356001600160a01b038116811461134957600080fd5b919050565b6000806040838503121561136157600080fd5b61136a83611332565b946020939093013593505050565b60008060006060848603121561138d57600080fd5b61139684611332565b92506113a460208501611332565b9150604084013590509250925092565b6000602082840312156113c657600080fd5b61041682611332565b634e487b7160e01b600052604160045260246000fd5b600080604083850312156113f857600080fd5b61140183611332565b9150602083013567ffffffffffffffff8082111561141e57600080fd5b818501915085601f83011261143257600080fd5b813581811115611444576114446113cf565b604051601f8201601f19908116603f0116810190838211818310171561146c5761146c6113cf565b8160405282815288602084870101111561148557600080fd5b8260208601602083013760006020848301015280955050505050509250929050565b600080604083850312156114ba57600080fd5b6114c383611332565b91506114d160208401611332565b90509250929050565b600181811c908216806114ee57607f821691505b60208210810361150e57634e487b7160e01b600052602260045260246000fd5b50919050565b6020808252602c908201527f46756e6374696f6e206d7573742062652063616c6c6564207468726f7567682060408201526b19195b1959d85d1958d85b1b60a21b606082015260800190565b6020808252602c908201527f46756e6374696f6e206d7573742062652063616c6c6564207468726f7567682060408201526b6163746976652070726f787960a01b606082015260800190565b634e487b7160e01b600052601160045260246000fd5b808201808211156103f1576103f16115ac565b600181815b808511156116105781600019048211156115f6576115f66115ac565b8085161561160357918102915b93841c93908002906115da565b509250929050565b600082611627575060016103f1565b81611634575060006103f1565b816001811461164a576002811461165457611670565b60019150506103f1565b60ff841115611665576116656115ac565b50506001821b6103f1565b5060208310610133831016604e8410600b8410161715611693575081810a6103f1565b61169d83836115d5565b80600019048211156116b1576116b16115ac565b029392505050565b600061041660ff841683611618565b80820281158282048414176103f1576103f16115ac565b6000602082840312156116f157600080fd5b5051919050565b6020808252602b908201527f496e697469616c697a61626c653a20636f6e7472616374206973206e6f74206960408201526a6e697469616c697a696e6760a81b606082015260800190565b601f821115610d0757600081815260208120601f850160051c8101602086101561176a5750805b601f850160051c820191505b8181101561178957828155600101611776565b505050505050565b815167ffffffffffffffff8111156117ab576117ab6113cf565b6117bf816117b984546114da565b84611743565b602080601f8311600181146117f457600084156117dc5750858301515b600019600386901b1c1916600185901b178555611789565b600085815260208120601f198616915b8281101561182357888601518255948401946001909101908401611804565b50858210156118415787850151600019600388901b60f8161c191681555b5050505050600190811b01905550565b600082516118638184602087016112db565b919091019291505056fe360894a13ba1a3210667c828492db98dca3e2076cc3735a920a3ca505d382bbc416464726573733a206c6f772d6c6576656c2064656c65676174652063616c6c206661696c6564a2646970667358221220bcdf30e46913c07184e2fc523e206bbeffbcdb56116ebc1f20c2b9a84c5e176564736f6c63430008110033",
  "linkReferences": {},
  "deployedLinkReferences": {}
}