{
  "_format": "hh-sol-artifact-1",
  "contractName": "exchange",
  "sourceName": "contracts/ticketExchange.sol",
  "abi": [
    {
      "inputs": [
        {
          "internalType": "address",
          "name": "_USDTaddress",
          "type": "address"
        },
        {
          "internalType": "uint256",
          "name": "_cost",
          "type": "uint256"
        },
        {
          "internalType": "address",
          "name": "_tokenAddress",
          "type": "address"
        },
        {
          "internalType": "address",
          "name": "_vesting",
          "type": "address"
        },
        {
          "internalType": "uint256",
          "name": "_max",
          "type": "uint256"
        },
        {
          "internalType": "uint256",
          "name": "_min",
          "type": "uint256"
        }
      ],
      "stateMutability": "nonpayable",
      "type": "constructor"
    },
    {
      "anonymous": false,
      "inputs": [
        {
          "indexed": true,
          "internalType": "address",
          "name": "previousOwner",
          "type": "address"
        },
        {
          "indexed": true,
          "internalType": "address",
          "name": "newOwner",
          "type": "address"
        }
      ],
      "name": "OwnershipTransferred",
      "type": "event"
    },
    {
      "anonymous": false,
      "inputs": [
        {
          "indexed": false,
          "internalType": "address",
          "name": "to",
          "type": "address"
        },
        {
          "indexed": false,
          "internalType": "uint256",
          "name": "amount",
          "type": "uint256"
        }
      ],
      "name": "swap",
      "type": "event"
    },
    {
      "inputs": [
        {
          "internalType": "address[]",
          "name": "_users",
          "type": "address[]"
        }
      ],
      "name": "batchWhitelist",
      "outputs": [],
      "stateMutability": "nonpayable",
      "type": "function"
    },
    {
      "inputs": [
        {
          "internalType": "address",
          "name": "",
          "type": "address"
        }
      ],
      "name": "bought",
      "outputs": [
        {
          "internalType": "bool",
          "name": "",
          "type": "bool"
        }
      ],
      "stateMutability": "view",
      "type": "function"
    },
    {
      "inputs": [
        {
          "internalType": "uint256",
          "name": "amount",
          "type": "uint256"
        }
      ],
      "name": "buyTickets",
      "outputs": [
        {
          "internalType": "address",
          "name": "",
          "type": "address"
        }
      ],
      "stateMutability": "nonpayable",
      "type": "function"
    },
    {
      "inputs": [],
      "name": "getIUsdtAddress",
      "outputs": [
        {
          "internalType": "address",
          "name": "",
          "type": "address"
        }
      ],
      "stateMutability": "view",
      "type": "function"
    },
    {
      "inputs": [],
      "name": "getIVestingAddress",
      "outputs": [
        {
          "internalType": "address",
          "name": "",
          "type": "address"
        }
      ],
      "stateMutability": "view",
      "type": "function"
    },
    {
      "inputs": [],
      "name": "getMax",
      "outputs": [
        {
          "internalType": "uint256",
          "name": "",
          "type": "uint256"
        }
      ],
      "stateMutability": "view",
      "type": "function"
    },
    {
      "inputs": [],
      "name": "getMin",
      "outputs": [
        {
          "internalType": "uint256",
          "name": "",
          "type": "uint256"
        }
      ],
      "stateMutability": "view",
      "type": "function"
    },
    {
      "inputs": [],
      "name": "getTokenAddress",
      "outputs": [
        {
          "internalType": "address",
          "name": "",
          "type": "address"
        }
      ],
      "stateMutability": "view",
      "type": "function"
    },
    {
      "inputs": [
        {
          "internalType": "address",
          "name": "_address",
          "type": "address"
        }
      ],
      "name": "getUserVault",
      "outputs": [
        {
          "internalType": "address",
          "name": "",
          "type": "address"
        }
      ],
      "stateMutability": "view",
      "type": "function"
    },
    {
      "inputs": [],
      "name": "owner",
      "outputs": [
        {
          "internalType": "address",
          "name": "",
          "type": "address"
        }
      ],
      "stateMutability": "view",
      "type": "function"
    },
    {
      "inputs": [],
      "name": "renounceOwnership",
      "outputs": [],
      "stateMutability": "nonpayable",
      "type": "function"
    },
    {
      "inputs": [
        {
          "internalType": "address",
          "name": "newOwner",
          "type": "address"
        }
      ],
      "name": "transferOwnership",
      "outputs": [],
      "stateMutability": "nonpayable",
      "type": "function"
    },
    {
      "inputs": [
        {
          "internalType": "address",
          "name": "",
          "type": "address"
        }
      ],
      "name": "whitelisted",
      "outputs": [
        {
          "internalType": "bool",
          "name": "",
          "type": "bool"
        }
      ],
      "stateMutability": "view",
      "type": "function"
    },
    {
      "inputs": [],
      "name": "withdrawall",
      "outputs": [],
      "stateMutability": "nonpayable",
      "type": "function"
    }
  ],
  "bytecode": "0x608060405234801561001057600080fd5b50604051610dce380380610dce83398101604081905261002f916100f6565b6100383361008a565b600180546001600160a01b03199081166001600160a01b039889161790915560028054821695881695909517909455600380549094169290951691909117909155600491909155600555600655610155565b600080546001600160a01b038381166001600160a01b0319831681178455604051919092169283917f8be0079c531659141344cd1fd0a4f28419497f9722a3daafe3b4186f6b6457e09190a35050565b80516001600160a01b03811681146100f157600080fd5b919050565b60008060008060008060c0878903121561010f57600080fd5b610118876100da565b95506020870151945061012d604088016100da565b935061013b606088016100da565b92506080870151915060a087015190509295509295509295565b610c6a806101646000396000f3fe608060405234801561001057600080fd5b50600436106100ea5760003560e01c80638da5cb5b1161008c578063d936547e11610066578063d936547e146101c9578063f2380a08146101ec578063f2fde38b14610218578063f66c72811461022b57600080fd5b80638da5cb5b1461019f578063a1eea1cc146101b0578063d6362e97146101c157600080fd5b806339ee0661116100c857806339ee06611461013e578063667022fd14610153578063715018a61461018657806382b665b31461018e57600080fd5b806310fe9ae8146100ef5780632f366637146101195780633075f5521461012c575b600080fd5b6002546001600160a01b03165b6040516001600160a01b0390911681526020015b60405180910390f35b6100fc610127366004610a0d565b610233565b6005545b604051908152602001610110565b61015161014c366004610a5c565b61070f565b005b610176610161366004610b21565b60086020526000908152604090205460ff1681565b6040519015158152602001610110565b6101516107d0565b6003546001600160a01b03166100fc565b6000546001600160a01b03166100fc565b6001546001600160a01b03166100fc565b600654610130565b6101766101d7366004610b21565b60076020526000908152604090205460ff1681565b6100fc6101fa366004610b21565b6001600160a01b039081166000908152600960205260409020541690565b610151610226366004610b21565b6107e4565b61015161085d565b3360009081526007602052604081205460ff16151560011461028f5760405162461bcd60e51b815260206004820152601060248201526f1bdb9b1e4815da1a5d195b1a5cdd195960821b60448201526064015b60405180910390fd5b3360009081526008602052604090205460ff16156102e05760405162461bcd60e51b815260206004820152600e60248201526d185b1c9958591e48189bdd59da1d60921b6044820152606401610286565b60055482111561031d5760405162461bcd60e51b81526020600482015260086024820152670e8dede40daeac6d60c31b6044820152606401610286565b60065482101561035c5760405162461bcd60e51b815260206004820152600a602482015269746f6f206c6974746c6560b01b6044820152606401610286565b336000818152600860205260409020805460ff19166001908117909155546004546001600160a01b0391909116916323b872dd91309061039c9087610b5b565b6040516001600160e01b031960e086901b1681526001600160a01b03938416600482015292909116602483015260448201526064016020604051808303816000875af11580156103f0573d6000803e3d6000fd5b505050506040513d601f19601f820116820180604052508101906104149190610b78565b506002546001600160a01b03166323b872dd6104386000546001600160a01b031690565b6040516001600160e01b031960e084901b1681526001600160a01b039091166004820152306024820152604481018590526064016020604051808303816000875af115801561048b573d6000803e3d6000fd5b505050506040513d601f19601f820116820180604052508101906104af9190610b78565b506002546001600160a01b031663a9059cbb336104cd600a86610b9a565b6040516001600160e01b031960e085901b1681526001600160a01b03909216600483015260248201526044016020604051808303816000875af1158015610518573d6000803e3d6000fd5b505050506040513d601f19601f8201168201806040525081019061053c9190610b78565b506002546003546001600160a01b039182169163095ea7b39116610561600a86610b9a565b61056c906009610b5b565b6040516001600160e01b031960e085901b1681526001600160a01b03909216600483015260248201526044016020604051808303816000875af11580156105b7573d6000803e3d6000fd5b505050506040513d601f19601f820116820180604052508101906105db9190610b78565b506003546002546000916001600160a01b039081169163dd83514e91163342610608816301e13380610bbc565b610613600a8a610b9a565b61061e906009610b5b565b6040516001600160e01b031960e088901b1681526001600160a01b03958616600482015294909316602485015260448401919091526064830152608482015260a4016020604051808303816000875af115801561067f573d6000803e3d6000fd5b505050506040513d601f19601f820116820180604052508101906106a39190610bcf565b3360008181526009602090815260409182902080546001600160a01b0319166001600160a01b038616179055815192835282018690529192507fd004f0f70a7b16b64544db702b3f5d807973701473caf1e8c3edfe513ad8eedb910160405180910390a190505b919050565b6000546001600160a01b031633146107695760405162461bcd60e51b815260206004820152601860248201527f4f6e6c79206f776e65722063616e2077686974656c69737400000000000000006044820152606401610286565b805160005b818110156107cb57600083828151811061078a5761078a610bec565b6020908102919091018101516001600160a01b03166000908152600790915260409020805460ff1916600117905550806107c381610c02565b91505061076e565b505050565b6107d8610963565b6107e260006109bd565b565b6107ec610963565b6001600160a01b0381166108515760405162461bcd60e51b815260206004820152602660248201527f4f776e61626c653a206e6577206f776e657220697320746865207a65726f206160448201526564647265737360d01b6064820152608401610286565b61085a816109bd565b50565b610865610963565b6001546001600160a01b031663a9059cbb6108886000546001600160a01b031690565b6001546040516370a0823160e01b81523060048201526001600160a01b03909116906370a0823190602401602060405180830381865afa1580156108d0573d6000803e3d6000fd5b505050506040513d601f19601f820116820180604052508101906108f49190610c1b565b6040516001600160e01b031960e085901b1681526001600160a01b03909216600483015260248201526044016020604051808303816000875af115801561093f573d6000803e3d6000fd5b505050506040513d601f19601f8201168201806040525081019061085a9190610b78565b6000546001600160a01b031633146107e25760405162461bcd60e51b815260206004820181905260248201527f4f776e61626c653a2063616c6c6572206973206e6f7420746865206f776e65726044820152606401610286565b600080546001600160a01b038381166001600160a01b0319831681178455604051919092169283917f8be0079c531659141344cd1fd0a4f28419497f9722a3daafe3b4186f6b6457e09190a35050565b600060208284031215610a1f57600080fd5b5035919050565b634e487b7160e01b600052604160045260246000fd5b6001600160a01b038116811461085a57600080fd5b803561070a81610a3c565b60006020808385031215610a6f57600080fd5b823567ffffffffffffffff80821115610a8757600080fd5b818501915085601f830112610a9b57600080fd5b813581811115610aad57610aad610a26565b8060051b604051601f19603f83011681018181108582111715610ad257610ad2610a26565b604052918252848201925083810185019188831115610af057600080fd5b938501935b82851015610b1557610b0685610a51565b84529385019392850192610af5565b98975050505050505050565b600060208284031215610b3357600080fd5b8135610b3e81610a3c565b9392505050565b634e487b7160e01b600052601160045260246000fd5b8082028115828204841417610b7257610b72610b45565b92915050565b600060208284031215610b8a57600080fd5b81518015158114610b3e57600080fd5b600082610bb757634e487b7160e01b600052601260045260246000fd5b500490565b80820180821115610b7257610b72610b45565b600060208284031215610be157600080fd5b8151610b3e81610a3c565b634e487b7160e01b600052603260045260246000fd5b600060018201610c1457610c14610b45565b5060010190565b600060208284031215610c2d57600080fd5b505191905056fea2646970667358221220888fe8480bf33fb9c386e743006850a4db0feb7b9b3e06e81db089042944db2164736f6c63430008110033",
  "linkReferences": {},
  "deployedLinkReferences": {}
}